:020000040800F2
:10000000501000209D010008A32A0008992500082F
:10001000A12A0008910800085338000800000000D9
:100020000000000000000000000000008134000813
:100030002D0B00080000000067330008B5340008ED
:10004000B7010008B7010008B7010008B7010008B0
:10005000B7010008B7010008B7010008B7010008A0
:10006000B7010008B7010008B7010008B701000890
:10007000B7010008B7010008B7010008B701000880
:10008000B7010008B7010008B7010008B701000870
:1000900095080008B7010008B7010008B70100087B
:1000A000B7010008B7010008B7010008B701000850
:1000B000B7010008B7010008B7010008B701000840
:1000C000B7010008B7010008B7010008B701000830
:1000D000B7010008B7010008B7010008B701000820
:1000E000B7010008B7010008B7010008B701000810
:1000F000B7010008B7010008B7010008B701000800
:10010000B7010008B7010008B7010008B7010008EF
:10011000B7010008B7010008B7010008B7010008DF
:10012000B7010008B7010008B7010008B7010008CF
:10013000B7010008B7010008B7010008B7010008BF
:10014000B7010008B7010008B7010008B7010008AF
:10015000B7010008B7010008B7010008B70100089F
:10016000B7010008B7010008B7010008B70100088F
:10017000B7010008B7010008B7010008000000003F
:10018000B7010008B7010008DFF80CD000F0DAFA78
:10019000004800475544000850100020064880479A
:1001A00006480047FEE7FEE7FEE7FEE7FEE7FEE75C
:1001B000FEE7FEE7FEE7FEE7493500088901000893
:1001C0002DE9F05F0546002092469B46884606468C
:1001D000814640241BE0284641464746224600F01F
:1001E000C2F953465A46C01A914110D311461846D7
:1001F000224600F0A9F92D1A67EB01084F46224666
:100200000120002100F0A0F917EB00094E41201E4B
:10021000A4F10104DFDC484631462A464346BDE8E6
:10022000F09FD2B201E000F8012B491EFBD27047CB
:100230000022F6E710B513460A4604461946FFF7B2
:10024000F0FF204610BD2DE9FE4F804681EA0300F5
:10025000C00F0C46009021F0004123F00045B8EBA0
:100260000200A94105D24046214690461C460B4655
:10027000024623F00040104347D0270DC7F30A0081
:10028000C3F30A510290401A019040286BDAC3F37D
:10029000130040F4801B0098924620B10023D2EB5B
:1002A000030A63EB0B0B01985946C0F1400250461C
:1002B00000F04AF906460D4650465946019A00F0AC
:1002C00062F910EB08006141002487EA115284EAC8
:1002D000E7731A4340D0009A62B3019A012A4FEAA9
:1002E000075215DC001B61EB02014FF0004202EAED
:1002F0000752CDE90042001C41F5801132462B46E1
:1003000000F062F903B0BDE8F08F40462146F9E7FE
:10031000001B61EB0201001C41F5801300185B41DA
:100320002018A2F5001747EB030140EAD570B61973
:100330006D4111E06D084FEA360645EAC0754FEA97
:100340000752001B61EB0201001C41F580114908B6
:100350004FEA30000019514132462B4603B0BDE848
:10036000F04F00F022B90098012240000023D0EBAA
:10037000020263EBE073009821464FEAE074B8EBA9
:10038000000061EB0401E9E783F000435BE781F0E3
:10039000004158E72DE9FE4F81EA030404F00044D0
:1003A00021F0004100944FF0000B23F0004350EA8D
:1003B00001045ED052EA03045BD0C3F30A54C1F3D4
:1003C0000A552C44A4F2F3340194A0FB0254C1F367
:1003D000130141F48011C3F3130343F4801301FBB1
:1003E000024400FB034E840A970A44EA815447EA18
:1003F0008357A4FB076802958D0A05FB07854FEA22
:10040000932C04FB0C542705029D4FEA065847EA3B
:100410001637B5EB08056EEB070C870E920E47EA10
:10042000811742EA8312A7FB0201B6EB0B0164EBD2
:1004300000042B0D43EA0C335E1844EB1C50DA46E3
:100440005146E7FB0201C5F313044FEA0B3343EABD
:1004500014534FEA0432019C43EA0603A4F10C044E
:100460000294009CCDE900B400F0AEF803B0BDE802
:10047000F08F00200146F9E70EB5C10F80EAE07069
:100480000844CA07002140F233438DE80E000A46B3
:100490000B4600F099F803B000BD0EB540F23341B1
:1004A00002910021CDE900110A460B4600F08CF8BC
:1004B00003B000BD70B5C1F30A5201F0004500243D
:1004C000C1F3130140F2FF3341F480119A4201DA83
:1004D000002070BD40F233439A42A2F2334203DC63
:1004E000524200F040F800E090402C43F1D04042EE
:1004F00070BD00F0004230F000400AD0C10D01F59F
:100500006071C0F3160042EA0151C208400711436E
:10051000704700200146704730B5041E71F1000499
:1005200004DB4FF00044404264EB0101141E73F100
:10053000000405DB1C464FF00043524263EB04030A
:100540008B4208BF824230BD202A04DB203A00FAE9
:1005500002F1002070479140C2F1200320FA03F31A
:10056000194390407047202A04DB203A21FA02F018
:100570000021704721FA02F3D040C2F120029140DD
:10058000084319467047202A06DBCB17203A41FA68
:1005900002F043EAE07306E041FA02F3D040C2F110
:1005A0002002914008431946704710B5141E73F19C
:1005B000000408DA401C41F1000192185B411A4323
:1005C00001D120F0010010BD2DE9F04D92469B466F
:1005D00011B1B1FA81F202E0B0FA80F22032904615
:1005E000FFF7B2FF04460F4640EA0A0041EA0B015A
:1005F00053465A46084313D0114653EA010019D016
:10060000C8F140025046FFF7AEFF05460E46504681
:1006100059464246FFF798FF084305D0012004E001
:1006200020463946BDE8F08D0020054346EAE076D5
:100630002C4337430A986305E40AA0EB0800002224
:10064000FD0A44EA47540A3002D500200146E9E792
:10065000010510196941DDE9084500196941BDE846
:10066000F04DA2E72DE9F04D81EA030404F0004BC0
:1006700021F0004514464FF0000A23F0004150EAF3
:10068000050220D054EA01021DD0C5F30A570246E4
:10069000C5F31303C1F31300C1F30A5640F48015E8
:1006A00043F48013A7EB0608101BD64608F2FD386A
:1006B00073EB050002D308F1010801E092185B41D9
:1006C000B8F1000F03DA00200146BDE8F08D0020EC
:1006D0004FF48011064684460EE0171B73EB0507A6
:1006E00005D3121B63EB050306434CEA010C4908D2
:1006F0004FEA300092185B4150EA0107EDD152EA0F
:10070000030012D082EA040083EA0501084305D001
:10071000101BAB4106D20122002306E000224FF05D
:10072000004302E06FF0010253101AEB06004CEB9D
:10073000085110EB0A0041EB0B01BDE8F04DFFF74B
:1007400034BF0000064C074D06E0E06840F00103AE
:1007500094E8070098471034AC42F6D3FFF718FD31
:10076000B8730008D8730008464910B54A6822F4E7
:1007700040324A604A6843681A434A6001684A68DE
:1007800022F480724A6001684A68036942EA0322DF
:100790004A6001684A6822F040724A6001684A680B
:1007A00083681A434A6001688A6822F400628A609A
:1007B00001688A68C3681A438A60816A6FF0706250
:1007C000D14201688A6822F070628A6001688A6892
:1007D0000CD0836A1A438A6001688A6822F040520A
:1007E0008A6001688A68C36A1A4301E022F04052B5
:1007F0008A6001688A6822F002028A6001688A6859
:10080000037E42EA43028A6090F8201000290168C2
:100810004A680FD042F400624A6001684A6822F4D4
:1008200060424A6001684A68174C436A04EB4333EC
:100830001A4301E022F400624A600168CA6A22F4A5
:100840007002CA620168CA6A838B104C04EB0353BE
:100850001A43CA6201688A6822F400728A600168D9
:100860008A6890F8303042EA43228A6001688A68D8
:1008700022F480628A6001688A68406942EA8020C6
:10088000886010BD0023014000E0FFFF0000F0FF82
:10089000FEE70000014800F0AEBC0000C8080020E0
:1008A00000B5084802F01AFD0648D43002F016FDE3
:1008B000054802F013FD04485DF804EBD43002F063
:1008C0000DBD00002C050020D406002070B5D0F826
:1008D00088300446C0F88C303B48018849BAC4F8D7
:1008E0008810428850BA52BAC4F89C20C4F8B400A8
:1008F000D4F89420C4F89820B0F5004F03DDA0F59B
:100900008030C4F8B400CB1AB4F9A400B3F5805F0A
:1009100001DD401E03E013F5805F02DA401CA4F8FD
:10092000A400B4F9A400DFED290A00EE100A01EBDF
:1009300040302A4DB8EEC00A20EE200ADFED240A2E
:1009400080EE201ADFED230A84ED211AD4F89010EE
:10095000401A00EE100AC4F89400811AB8EEC00ADA
:1009600020EE200ADFED1C0A20EE200A84ED280A82
:1009700094F9800004EB8002401C84F880009160B0
:1009800094F880001E2818D10020286084F8800088
:100990004FEA000104EB8102491C92681C291044B3
:1009A000F8DB2860FFF768FD9FED0D1B53EC112B62
:1009B000FFF7F0FCFFF77EFD686095ED010AB8EEE9
:1009C000C00A84ED010A70BDE800002000003B432E
:1009D00000706045986E12406F12833AE00000206C
:1009E0003481221631ECB43F1649A0F5007001386D
:1009F0000DD0012811D0022819D0032820D1D1F818
:100A00008C22501CC1F88C0201F523700BE00A699E
:100A1000501C08610B48103005E051F8E42F501CC1
:100A200008600848E430322A08DA03F009BDD1F83A
:100A3000B821501CC1F8B8010348F4E7FFF746BFDE
:100A4000704700001C050020D406002010B58AB0B5
:100A5000002101220446CDE90612039104910E20E3
:100A6000CDE9082005910091019102916946204647
:100A700000F0C6FA08B100F05AF8204600F09AFDDE
:100A800008B100F054F80221204600F043FA08B102
:100A900000F04DF80AB0002010BD30B589B008252F
:100AA00006950C9CAD0102950025049505950D0A4F
:100AB0008DF800508DF80110110A8DF80210190AF6
:100AC0008DF804108DF80530210A8DF806108DF888
:100AD00003208DF8074001236A4602A900F02CFA92
:100AE000002801D000F023F809B030BD0D4A9FED79
:100AF0000E1A0020F2EE0E0AB7EE000A41F2883319
:100B00003521414302EB8101401CC1ED2E0A81EDEC
:100B10002F0A81ED300AC1F8DC3081ED051A042876
:100B2000EEDB70471C050020000000007047FEE768
:100B300070B52DED0E8B9FED70ABB0EE409AF0EEE0
:100B4000609AB0EE418AF0EE618A9FED6D0B51EC38
:100B5000120B53EC102BFFF71DFC41EC100B51EC6A
:100B60001A0B53EC102BFFF715FC0D4645EC1A0B36
:100B700004469FED65EBB0EE4E0AF0EE6E0A02F011
:100B8000A3FE53EC182B51EC100BFFF703FC41ECC8
:100B90001B0BB0EE4E0AF0EE6E0A02F0F9FEB0EE5C
:100BA000401AF0EE601A53EC192B51EC110BFFF7C1
:100BB000F1FB53EC1B2BFFF7E7FB53EC1A2BFFF772
:100BC00042FB41EC1D0B45EC1A4BB0EE4E0AF0EE29
:100BD0006E0A02F079FE53EC182B51EC100BFFF764
:100BE000D9FB41EC1B0BB0EE4E0AF0EE6E0A02F0A0
:100BF000CFFE51EC100B81F0004153EC192BFFF7A5
:100C0000C9FB53EC1B2BFFF7BFFB53EC1A2BFFF771
:100C10001AFB41EC1C0B45EC1A4BB0EE4E0AF0EE01
:100C20006E0A02F0B5FEB0EE401AF0EE601A53EC18
:100C3000192B51EC110BFFF7ADFB41EC1B0BB0EE88
:100C40004E0AF0EE6E0A02F03FFE53EC182B51EC08
:100C5000100BFFF79FFB53EC1B2BFFF795FB53EC9F
:100C60001A2BFFF7F0FA41EC1B0B45EC1A4BB0EED8
:100C70004E0AF0EE6E0A02F027FE53EC182B51ECF0
:100C8000100BFFF787FB41EC180BB0EE4E0AF0EEAD
:100C90006E0A02F07DFEB0EE401AF0EE601A53ECE0
:100CA000192B51EC110BFFF775FB53EC182BFFF7C9
:100CB000CAFA53EC1A2BFFF7C6FA41EC180B51ECA9
:100CC0001D0BFFF7F7FB124CC4F8D00051EC1C0BC6
:100CD000FFF7F0FBC4F8A40151EC1B0BFFF7EAFB94
:100CE000C4F8780251EC180BFFF7E4FBC4F84C038E
:100CF000BDEC0E8B70BD000000000000007077405E
:100D0000FCA9F1D24D62503F00000040FB21E93FB9
:100D10001C05002078B50024009490F83C20012A9E
:100D200019D0012280F83C200A6807230568092AA7
:100D300013D9EE680A3A02EB420293409E43EE60FA
:100D40000B788A680A3B03EB43039A400368DD682B
:100D50002A43DA6010E0022078BD2E6902EB4202DD
:100D600093409E432E610B788A6803EB43039A40BD
:100D700003681D692A431A614A681F23072A13D290
:100D800005686E6B521E02EB820293409E436E63B7
:100D90000B790A885B1E92B203EB83039A400368C7
:100DA0005D6B2A435A6327E005680D2A12D22E6B29
:100DB000D21F02EB820293409E432E630B790A8876
:100DC000DB1F92B203EB83039A4003681D6B2A4337
:100DD0001A6311E0EE6A0D3A02EB820293409E43E1
:100DE000EE620B790A880D3B92B203EB83039A40C3
:100DF0000368DD6A2A43DA62164B0568144A9D428D
:100E000006D10D68122D03D1556845F48005556053
:100E100005689D4218D10B68102B01D0112B13D1FE
:100E2000536843F400035360096810290CD10A4940
:100E30000A4A0968B1FBF2F101EB8101490000E0C7
:100E4000491E00910029FBD180F83C40002078BD6C
:100E500000230140002001400801002040420F0013
:100E600070B504004FF0000503D0206C002610B1CF
:100E700007E0012070BD204600F01CF8666484F88D
:100E80003C60206CC00610D4206C20F4885040F0E8
:100E9000020020642046FFF767FC6664206C20F0A7
:100EA000020040F00100206400E0012584F83C606D
:100EB000284670BD10B586B0044614216846FFF779
:100EC000B7F91149206888421CD1104800210268F6
:100ED00042F480620260006800F4806005900B4874
:100EE0001438026842F020020260006800F020001E
:100EF0000590082000900320CDE9010169460448CF
:100F000000F09EFB06B010BD0022014044380240B4
:100F10000014024090F82020012A07D0022A05D0B0
:100F2000416A41F4802141620120704700684269B2
:100F30000A43426100207047F0B590F820500468E1
:100F4000A468012D05D0022D03D0416A41F480210F
:100F500053E014F0406F01D1E5004BD5C4F30164B8
:100F6000022C03D9416A41F4000146E00125A54065
:100F70001D608D684FF4C0739DB1CE6835434E68D7
:100F800045EAC605066803EB0417F5514FF4C27530
:100F9000076805EB04150E697E51097D012905D00E
:100FA00009E00E88CD6845EA4655EBE701684E59E1
:100FB00046F480764E511179D2F805504FF4C6763A
:100FC00041EA0525016806EB04168D511178D2F827
:100FD00001204FF4C47541EA0221026805EB0415B3
:100FE0005151006803EB0411425842F00102425093
:100FF0000020F0BD416A41F4001141620120F0BDC2
:1010000010B590F82020012A07D0022A05D0416AA5
:1010100041F480214162012010BD3B48D0F80022FC
:1010200042F00102C0F80022D0F8002222F47C52E3
:10103000C0F80022D0F800224B6A42EA0322C0F82E
:1010400000220A7D02F01F0301229A40D0F81C32D0
:101050009343C0F81C32CB69B3B9D0F80C32934338
:10106000C0F80C328C894B6864F31F434C6900EB69
:10107000C404C4F840320C890B6864F31F434C6904
:1010800000EBC404C4F84432CB69012B16D1D0F86C
:101090000C321343C0F80C320C884B6864F31F43C6
:1010A0004C6900EBC404C4F840320C89CB6864F38B
:1010B0001F434C6900EBC404C4F844328B69002B15
:1010C000D0F804320ED01343C0F804320B69002B61
:1010D000D0F8143208D01343C0F81432096A012939
:1010E00004D008E09343EFE79343F5E7D0F81C12F0
:1010F0001143C0F81C12D0F8001221F00101C0F811
:101100000012002010BD000000640040704730B5A0
:1011100090F82040012C05D0022C03D0416A41F404
:1011200080215DE00468002955D02469A40754D0CB
:101130004FF4D874056804EB01142D5915F004051B
:10114000956005682D594ED0ED08556005682C59FD
:10115000C4F34004D4604FF4DA74056804EB01145E
:101160002D5905F00F05156105682D59C5F30725A3
:10117000956105682C59240C54614FF4DC720468A5
:1011800002EB0112A4581C700468A458240A5C7075
:101190000468A458240C9C700468A258120EDA70DB
:1011A0004FF4DE72046802EB0112A4581C7104684B
:1011B000A458240A5C710468A458240C9C71046827
:1011C000A258120EDA71006881B1016941F0200164
:1011D0000161002030BDE468A8E7416A41F40011D4
:1011E0004162012030BD6D0D1560AFE7C16841F06F
:1011F0002001C160EDE72DE9F05F0546006800249D
:101200004669D0F804908768D0F80CB0D0F810A0E8
:10121000D0F81880F10748D0F90714D00121816077
:10122000B80703D5284600F0F2F90CE0780702D59C
:101230004FF4006407E0380702D54FF4805402E011
:10124000284600F0E3F9F80516D529684FF48070B8
:101250008860B80503D5284600F0DBF90CE0780576
:1012600002D544F4005407E0380502D544F4804424
:1012700002E0284600F0CCF9F80316D529684FF4AF
:1012800080308860B80303D5284600F0C4F90CE02C
:10129000780302D544F4004407E0380302D544F44F
:1012A000803402E0284600F0B5F9300707D55FEA40
:1012B000CB6004D52968102044F40074C86070071E
:1012C0004FF0080707D55FEA0B7004D52868C760A0
:1012D000284600F059F9B00706D52868C06880078D
:1012E00002D0284600F052F9700607D55FEACA60BE
:1012F00004D52968102044F480640861B00607D53D
:101300005FEA0A7004D528680761284600F04EF9A4
:10131000F00606D528680069800702D0284600F04C
:1013200046F9B00308D55FEAC96005D529681020E1
:101330004860284600F03CF9F00307D55FEA0970E1
:1013400004D528684760284600F066F9300446D581
:101350005FEA497040D5F00504D55FEAC87001D056
:1013600044F00104B00504D55FEA887001D544F06B
:101370000204700504D55FEA487001D544F0040406
:10138000300529D518F0700F26D008F070004028DD
:1013900015D006DC102809D020280AD0302816D114
:1013A0000AE050280ED0602811D10EE044F0080465
:1013B0000DE044F010040AE044F0200407E044F09B
:1013C000400404E044F0800401E044F480742868A0
:1013D000816921F070018161296804204860002C36
:1013E00005D0686A204368622846FFF78FFEBDE893
:1013F000F09F70B5040003D094F8200010B104E011
:10140000012070BD204600F081F82068016821F0BD
:101410000201016000F0F8F90546052604E000F03D
:10142000F3F9401B0A2811D8206840688007F6D4D9
:101430002068016841F00101016000F0E5F905460E
:101440000BE000F0E1F9401B0A2806D9606A40F47D
:101450000030606284F82060D2E720684068C007EE
:10146000EFD0207E0128206801683DD021F0800166
:101470000160607E01282068016838D021F04001B9
:101480000160A07E01282068016833D021F020018E
:101490000160E07E0128206801682ED041F0100133
:1014A0000160207F01282068016829D021F008010F
:1014B0000160607F01282068016824D021F00401C8
:1014C0000160D4E902010843D4E90412114308433E
:1014D0006168491E08432168C861002060620120DC
:1014E00084F82000002070BD41F08001C0E741F089
:1014F0004001C5E741F02001CAE721F01001CFE724
:1015000041F00801D4E741F00401D9E710B586B0F5
:10151000044614216846FEF78BFE1849206888426D
:1015200029D117480021026842F000720260006869
:1015300000F00070059012481038026842F0010275
:101540000260006800F0010005904FF4C050009068
:101550000220CDE90101032003900920049069468F
:10156000084800F06DF800221146142000F0BAF986
:10157000142000F0A9F906B010BD0000006400407E
:1015800040380240000002407047000000B587B0BC
:10159000054B6A460021FFF7BAFD00B1FEE700984F
:1015A000FFF722FA07B000BDE8000020704770473F
:1015B0007047000070B5044690F82000012804D060
:1015C000606A40F40020606218E0022084F8200085
:1015D0002068016821F00101016000F015F905465D
:1015E0000EE000BF00F010F9401B0A2808D9606A1D
:1015F00040F400306062052084F82000012070BDB6
:1016000020684068C007EDD1606270BD70477047C8
:1016100070477047704770477047000070B50446C8
:1016200000F0F2F80546601C02D00448007804443B
:1016300000F0EAF8401BA042FAD370BDFC00002085
:101640002DE9F84FDFF87CB100224FF001084FF090
:10165000030A4FF00F090BF1040E00BF0B6808FAE4
:1016600002F42340A3426ED14D68022D01D0122D09
:101670000ED1D50800EB850CDCF820505607F70E8C
:1016800009FA07F6B5430E69BE402E43CCF8206038
:10169000066855000F790AFA05FC07F0030726EAE9
:1016A0000C06AF40374307604E68012E05D0022E6E
:1016B00003D0112E01D0122E0ED18668CF6826EAF3
:1016C0000C06AF40374387604668A6430C79C4F3E5
:1016D0000014944034434460C6688C6826EA0C06C3
:1016E000AC403443C4604C68E40065D5364C256892
:1016F00045F480452560246822F0030504F4804405
:101700000094324C2E19D6F8084895072F0F09FA85
:1017100007F5AC432E4DA84201D1002524E02D4D04
:10172000A84201D101251FE02B4DA84201D102257D
:101730001AE02A4DA84201D1032515E0284DA84200
:1017400002D1042510E037E0264DA84201D105253D
:101750000AE0254DA84201D1062505E0234DA84207
:1017600001D1072500E00825BD402543C6F80858EB
:10177000DBF800405D464E689C43F60300D51C43F1
:101780002C60DEF8004075464E689C43B60300D5D9
:101790001C432C600B4D08352C684E689C43F602A8
:1017A00000D51C432C60074D0C352C684E689C43BB
:1017B000B60200D51C432C60521C102AFFF44EAF19
:1017C000BDE8F88F003C0140443802400030014041
:1017D000000002400004024000080240000C0240E9
:1017E000001002400014024000180240001C024099
:1017F000426931EA020200D10904816170470AB1ED
:10180000816170470904FBE7014880687047000068
:10181000FC00002002488168027811448160704712
:10182000FC0000200B4810B5016841F40071016014
:10183000016841F480610160016841F480710160D8
:10184000032000F06FF8002000F006F800F024F804
:10185000002010BD003C024070B50D4D04464FF411
:101860007A712878B1FBF0F00A490968B1FBF0F011
:1018700000F0EDFC48B9102C07D200222146501E82
:1018800000F030F800206C6070BD012070BD0000D9
:10189000FC000020080100200A4808B5016841F456
:1018A00080410160006800F4804000900548001FFE
:1018B000016841F080510160006800F080500090A4
:1018C00008BD000044380240002809DB00F01F0278
:1018D000012191404009800000F1E020C0F8001192
:1018E00070470000F0B40E4B1B680C46C3F3022394
:1018F000C3F10705042D00D90425191D072901D2BC
:10190000002300E0DB1E012606FA05F1491E2140F6
:1019100099409E40761E16403143F0BC01F0C2BF94
:101920000CED00E0064900F0070208684FF6FF03DF
:10193000184040EA0220034A104308607047000044
:101940000CED00E00000FA052DE9F0470E46050019
:1019500065D0DFF81481D8F80000F7B200F00F006E
:10196000B04207D288F80070D8F8000000F00F00ED
:10197000B04254D128683D4C810712D5400703D5A9
:10198000206840F4E05020602878000703D52068E4
:1019900040F4604020602068A96820F0F00008430F
:1019A00020602878C0072DD03049686808390128A0
:1019B00012D0022813D0032811D009688907002902
:1019C0002DDA216821F0030101432160FFF71CFF9C
:1019D000814641F2883A0EE009688903EFE7096819
:1019E0008901ECE7FFF710FFA0EB0901514502D98F
:1019F0000320BDE8F0872068696800F00C00B0EBB8
:101A0000810FEFD1D8F80010404601F00F01B1422C
:101A100007D90770006800F00F00B04201D0012024
:101A2000E7E72878400705D52068E96820F4E0500A
:101A3000084320602878000706D52068296920F42B
:101A4000604040EAC100206000F016F82168084AB2
:101A5000C1F30311515CC840064908600020FFF73C
:101A6000FBFE0020C5E70000003C024008380240B1
:101A70008672000808010020154810B5006810F0B3
:101A80000C02144813D04110042A0FD0082A0ED19A
:101A90000F4C241F2268236802F03F025B0207D527
:101AA0002068C0F38810A0FB010106E0084610BDC5
:101AB0002168C1F38811A1FB00010023FEF780FB20
:101AC0002168C1F30141491C4900B0FBF1F010BD90
:101AD000083802400024F4002DE9F84F050076D0C4
:101AE0002878DFF8F8B2BE4CC00749D0DBF8001008
:101AF0005846C1F38101012908D00068C0F3810074
:101B000002280AD1201D0068400206D52068800303
:101B100036D568680028E2D032E06868B0F5803FCA
:101B200010D0B0F5A02F206810D020F480302060B5
:101B3000206820F4802020606868A0B1FFF764FE70
:101B400006460CE0206840F48030F4E740F4802042
:101B50002060F7E7FFF758FE801B642873D82068E1
:101B60008003F7D50CE0FFF74FFE064605E000BF07
:101B7000FFF74AFE801B6428F0D820688003F7D462
:101B80002878DFF8608280074FF000093ED5DBF847
:101B90000010584611F00C0F09D00068C0F3810006
:101BA00002280BD18D48001F0068400206D420682F
:101BB000800715D5E868012809D111E0E868B8B1B7
:101BC0000120C8F80000FFF71FFE064605E002E10D
:101BD000FFF71AFE801B0228C0D820688007F7D5BF
:101BE0002068296920F0F80040EAC10020600DE07B
:101BF000C8F80090FFF708FE064604E0FFF704FE71
:101C0000801B02281FD820688007F7D42878000797
:101C100022D5724E744869696C3671B10121016038
:101C2000FFF7F2FD074604E0FFF7EEFDC01B0228B8
:101C300009D830688007F7D50EE0C0F80090FFF7AC
:101C4000E3FD074605E083E0FFF7DEFDC01B022849
:101C50007ED830688007F7D42878400768D5DFF849
:101C60007CA100270AF1380ADAF80000C0000BD482
:101C7000DAF8001041F08051CAF80010DAF80000DC
:101C8000012700F080500090584E3068C00510D4F5
:101C9000306840F480703060FFF7B6FD009005E0DA
:101CA000FFF7B2FD0099401A022851D83068C005EC
:101CB000F6D54A4EA868683601280FD00528306846
:101CC00010D020F001003060306820F00400306057
:101CD000A868B8B1FFF798FD00900FE0306840F0B9
:101CE0000100F4E740F004003060F7E7FFF78CFDF7
:101CF0000099411A41F28830814264D830688007E7
:101D0000F4D50EE0FFF780FD009007E0FFF77CFDC3
:101D10000099411A41F28830814254D830688007D6
:101D2000F4D42FB1DAF8001021F08051CAF8001075
:101D3000A869C0B3DBF80010C1F3810102294AD0C1
:101D40000228484607D0C8F86000FFF75DFD00E0B4
:101D500039E005463AE04746C8F86000FFF754FD11
:101D6000064604E0FFF750FD801B02282BD82068B0
:101D70008001F7D4D5E907010843A96A1C4A49083C
:101D800002EB01416A6A41EA8211084395F82C107E
:101D900040EA01611148001F016001203866FFF729
:101DA00033FD054605E014E0FFF72EFD401B022839
:101DB00009D820688001F7D50BE000BFFFF724FDAC
:101DC000401B022802D90320BDE8F88F206880015B
:101DD000F4D40020F8E70120F6E7000008380240BC
:101DE0000038024000004742800E47420070004029
:101DF0000000FFFF70B5040005D00025A56294F82F
:101E0000510010B106E0012070BD84F8505020460A
:101E100000F030F8022084F851002068016821F0B9
:101E200040010160D4E901010843D4E903121143E0
:101E3000084361690843218B01F400710843E1699B
:101E40000843216A0843A16A084321680860A06921
:101E5000042101EA1040616A084321684860206853
:101E6000C16921F40061C1616565012084F85100F8
:101E7000002070BDF0B587B0044614216846FEF717
:101E8000D7F920491E4F266800251E4A1039022323
:101E900003241D48BE4214D1166846F480461660DD
:101EA000126802F4804205920A6842F002020A6057
:101EB000096801F002010591B9008DE82A000521A9
:101EC00016E0124FBE4218D1166846F4004616605E
:101ED000126802F4004205920A6842F002020A60A7
:101EE000096801F00201059138218DE82A000621D8
:101EF000CDE903416946FFF7A3FB07B0F0BD000041
:101F0000003800404038024000040240003C0040DD
:101F10002DE9F84F044690F8500000271D4616465C
:101F2000894601280DD04FF0010B84F850B0FFF71F
:101F30006BFC804694F85100BA46012804D0022771
:101F40008EE00220BDE8F88FB9F1000F7DD0002EA1
:101F50007BD0032084F85100C4F854A0C4F830901A
:101F6000A686E686C4F838A0A4F83CA0A4F83EA053
:101F7000C4F844A0C4F840A0A068B0F5004F04D154
:101F80002068016841F480410160206801684906C9
:101F900003D4016841F040010160E068B0F5006FD2
:101FA000606803D030B3012E24D040E008B1012E88
:101FB0001CD1206B21680088C86006E02068816819
:101FC000890709D5216B0988C160206B801C2063BB
:101FD000E08E401EE08609E0FFF716FCA0EB08004B
:101FE000A84202D3681C01D031E07DB3E08E002806
:101FF000E4D11FE0206B21680078087306E02068B8
:102000008168890709D5216B09780173206B401C11
:102010002063E08E401EE08609E0FFF7F5FBA0EBB1
:102020000800A84202D3681C01D010E075B1E08E10
:102030000028E4D142462946204601F095F908B12E
:1020400020206065A06820B107E008E0FFE70327D3
:1020500006E02068C16880680090606D00B10127CB
:1020600084F851B084F850A038466BE72DE9F84F5A
:10207000044690F8500000270A9E1D4692468B4663
:102080004FF0010901280ED0012084F85000FFF71D
:10209000BBFB804694F85100616801280CD0B1F573
:1020A000827F07D102E00220BDE8F88FA16809B95C
:1020B000042801D00227C2E0BBF1000F27D0BAF1FB
:1020C000000F24D01DB394F85100042802D005203D
:1020D00084F8510000206065C4F838A0E587A58722
:1020E000C4F830B0E586A586206460642068016885
:1020F000490603D4016841F040010160E068B0F591
:10210000006F606805D0E8B3012D46D07FE001275D
:1021100095E008B1012D39D1206B21680088C86095
:10212000206B801C2063E08E401EE0862EE020683D
:10213000816889070FD5E18E69B1B9F1010F0AD124
:10214000216B0988C160206B801C2063E08E401EDB
:10215000E0864FF0000920688168C9070CD0E18F44
:1021600051B1C068A16B0880A06B801CA063E08F98
:10217000401EE0874FF00109FFF746FBA0EB080087
:10218000B04200E009E001D3701C50D1E08E00287D
:10219000CDD1E08F0028CAD13FE0206B21680078C4
:1021A0000873206B401C2063E08E401EE0862EE00A
:1021B0002068816889070FD5E18E69B1B9F1010FF7
:1021C0000AD1216B09780173206B401C2063E08EDB
:1021D000401EE0864FF0000920688168C9070CD0D6
:1021E000E18F51B1C068A16B0870A06B401CA06367
:1021F000E08F401EE0874FF00109FFF705FBA0EBE1
:102200000800B04202D3701C01D010E07EB1E08E15
:102210000028CDD1E08F0028CAD142463146204661
:1022200001F0A2F828B101272020606507E003270C
:1022300005E0A06818B92068C16880680090012096
:1022400084F85100002084F8500038462CE710B57F
:10225000401EB0F1807F01D3012010BD4FF0E0247B
:1022600060610F21601701F01DFB0020A0610720B5
:102270002061002010BD70B590F83C20012A19D0D3
:10228000012400F83C4F0222427050F83C3C5A684E
:102290009D6822F070060A684968324325F080057F
:1022A00029435A6050F83C2C916044700021017021
:1022B000084670BD022070BD10B5040003D094F82C
:1022C0003D0010B107E0012010BD002084F83C0063
:1022D000204600F00DF8022084F83D00211D206802
:1022E00001F05CF9012084F83D00002010BD0000E1
:1022F00008B500680C49884208D10C48016841F0D3
:1023000008010160006800F008000BE008498842FD
:1023100009D10648001D016841F4003101600068E0
:1023200000F40030009008BD000C0040403802402E
:102330000044014070B5044690F83C00012817D0D5
:10234000012584F83C50022084F83D002068826812
:1023500022F0770222F47F4282600868502830D051
:102360000DDC20284DD005DC98B310283BD148E087
:10237000022070BD302844D0402834D139E0602894
:1023800028D0702806D0B0F5805F2CD0B0F5005F63
:1023900029D10AE0CB68D1E90121206801F062F976
:1023A0002068816841F0770109E0CB68D1E901211B
:1023B000206801F057F92068816841F4804181600C
:1023C00011E0CA684968206801F020FA50212068AD
:1023D00007E016E0CA684968206801F028FA602121
:1023E000206801F049F984F83D50002084F83C0051
:1023F00070BDCA684968206801F008FA4021206869
:10240000EFE7226801461046EBE7000010B586B002
:10241000044614216846FDF70BFF2368174C002182
:1024200017480222A34210D1036843F0010303605E
:10243000006800F00100059007200090CDE901211F
:10244000CDE9031269460F4813E00F4CA34212D1A5
:10245000036843F002030360006800F00200059087
:10246000A0150090CDE901210320CDE903106946B4
:102470000648FFF7E5F806B010BD0000000C00406C
:102480003038024000000240004401400004024095
:1024900070B5044690F83C000D4601280DD0012689
:1024A00084F83C60022084F83D0042B1042A18D030
:1024B000082A2AD00C2A4DD139E0022070BD2068AC
:1024C00001F0E2F82068816941F00801816120682B
:1024D000816921F004018161206881692A691143C1
:1024E00011E0206801F000F92068816941F4006181
:1024F00081612068816921F480618161206881693E
:102500002A6941EA0221816124E0206801F022F970
:102510002068C16941F00801C1612068C16921F0EA
:102520000401C1612068C1692A69114311E0206872
:1025300001F044F92068C16941F40061C16120687B
:10254000C16921F48061C1612068C1692A6941EAD9
:102550000221C16184F83D60002084F83C0070BD18
:1025600010B5040003D094F83D0010B107E001203D
:1025700010BD002084F83C00204600F00CF802203A
:1025800084F83D00211D206801F008F8012084F83E
:102590003D00002010BD7047FEE700002DE9F0412E
:1025A000FFF732F9414E316988427DD0FFF72CF9AF
:1025B000002130610C460A4604200AE0336800EB33
:1025C0000217DD59002D03DD6D1E491CDD51C9B216
:1025D000521C33799342F1DCDAB28A4264D0737BC5
:1025E000B16801EBC3010B784968DDB27F2D0ED0D5
:1025F0002C460C274FF0080811F1030F40D011F1C1
:10260000020F2FD0B1F1FF3F15D071BB43E0521E36
:10261000D5B2EEE7306800EB0411097801290DD03E
:102620005FF0000207EB041108EB0413415AC05895
:10263000FFF7E5F8641CAC42ECDD2CE00122F1E789
:10264000306800EB04110978012901D0012200E073
:10265000002207EB041108EB0413415AC058FFF79E
:10266000CEF8641CAC42EBDD15E012E0306807EBFD
:10267000041108EB0412415A8058FFF7B9F8641CA2
:10268000AC42F3DD07E000BF326800EB0413641CCA
:10269000D150AC42F8DD707B317B884202D0401CC7
:1026A00001E001E000207073BDE8F08144000020EB
:1026B00070B5234C08258020257101F067FF214B60
:1026C0002060836021680420012288812068002125
:1026D000202641602068027020688361206885831D
:1026E00041612068102502742068836285854162FB
:1026F00000F8202F8361868341610274124B83624C
:102700008585416280F8202083638687416380F855
:10271000302040268364A0F84C60416480F840205B
:1027200083658023A0F85C30416580F8502004F177
:102730001C00A06025736173FFF766F8206170BD0F
:102740004400002000100240001802407FB5002421
:1027500015480094019402941249039401600125E4
:102760004FF480310561C0E90114057680F82040FE
:102770000E49C0E90A14C561C46080F83040456163
:10278000FEF76EFB08B1FEF7D2F90920CDE900058E
:10279000694602940448FEF7BDFA002801D0FEF70E
:1027A000C6F97FBD00220140800800200100000F13
:1027B0000F4810B50D4901600321416000214FF41D
:1027C00000228160C0E903124FF440124261017699
:1027D00041768176C17601774177FEF70AFE0028BF
:1027E00003D0BDE81040FEF7A2B910BD0064004060
:1027F000C80800202DE9F04786B014216846FDF78F
:1028000017FD38480024016841F01001016001689B
:1028100001F010010591016841F02001016001689B
:1028200001F020010591016841F08001016001681B
:1028300001F080010591016841F00101016001682A
:1028400001F001010591016841F002010160016898
:1028500001F002010591016841F04001016000684A
:10286000DFF8848000F04000059000223C214046C3
:10287000FEF7C5FFDFF874904FF4C05600223146D2
:102880004846FEF7BCFFDFF868A04EF2F0070022D2
:1028900039465046FEF7B3FF3C2000900125CDE9B4
:1028A0000154694640460394FEF7CAFEA802CDE9EA
:1028B0000004694648460294FEF7C2FE0096CDE940
:1028C0000154694648460394FEF7BAFE0097CDE9E5
:1028D0000154694650460394FEF7B2FE06B0BDE8C7
:1028E000F08700003038024000100240000402402F
:1028F000001802400F4810B50D4901604FF4827175
:10290000416000218160C1604FF400720161C0E943
:102910000512C1610162416281620A21C162FFF751
:1029200069FA002803D0BDE81040FEF700B910BDD9
:1029300000380040F00800200F4810B50D49016034
:102940004FF48271416000218160C1604FF40072D8
:102950000161C0E90512C1610162416281620A211F
:10296000C162FFF747FA002803D0BDE81040FEF728
:10297000DEB810BD003C00404809002010B588B00A
:102980001C216846FDF754FC1648154900240160D7
:10299000A721C0E9011440F2E731C0E903148461C2
:1029A000FFF78AFC08B1FEF7C2F80E48FFF7D8FD22
:1029B00008B1FEF7BCF8602000904FF4FA70CDE942
:1029C00001040022694607480494FFF761FD08B13D
:1029D000FEF7ADF80348FFF719FD08B010BD000081
:1029E00000440140E009002010B58EB00024079497
:1029F000089409940A940B941C2168460C94FDF7E2
:102A000017FC2648244901604721C0E9011440F21F
:102A1000E731C0E903148461FFF74EFC08B1FEF70B
:102A200086F84FF48050079007A91C48FFF782FCF6
:102A300008B1FEF77CF81948FFF792FD08B1FEF7E0
:102A400076F80B940BA915480C94FFF714FC08B109
:102A5000FEF76DF86020CDE900040294002269467B
:102A60000E480494FFF714FD08B1FEF760F8042245
:102A700069460A48FFF70CFD08B1FEF758F808222E
:102A800069460648FFF704FD08B1FEF750F8034811
:102A9000FFF7BCFC0EB010BD000C0040A0090020E8
:102AA000FEE770471CB50D4C05223020A16901F0EE
:102AB000C7FD05226946102001F09EFDA169002096
:102AC0006A460C5C135CA34201D000201CBD401C74
:102AD000C0B20528F5D301201CBD0000200A00204B
:102AE00070B5194C0022A1892068FEF788FE217D6F
:102AF000212001F0C9FDE17C222001F0C5FD617DAE
:102B0000252001F0C1FDA17D262001F0BDFDA18998
:102B100001222068FEF773FEFF2504E084F82850A8
:102B20000120FEF77BFDFFF7BDFF0028F6D0A07C5B
:102B300008B900F051F8A07C012803D1BDE870402D
:102B400000F02CB870BD0000200A00200F482021A2
:102B5000002280F8211080F8201001210175C17435
:102B600042750F228275817409490160CA148281FD
:102B70008A144160C2818160091501820549816121
:102B8000491FC16104494162FFF7AABF200A002022
:102B900000040240F5000020F008002010B50D4CA4
:102BA0000022A1892068FEF72AFE05222A20A169B9
:102BB00001F046FD94F82010312001F065FD0F2151
:102BC000202001F061FDA1892068BDE810400122AC
:102BD000FEF715BE200A002010B50F4C0022A18977
:102BE0002068FEF70CFE05223020E16901F028FD87
:102BF0000A21242001F048FD0E21202001F044FD8F
:102C000094F82010312001F03FFDA1892068BDE833
:102C100010400122FEF7F3BD200A002010B500216C
:102C2000202000F02DFB0021BDE81040022000F024
:102C300027BB000030B5074C0022002104EBC20383
:102C4000455C5D54491C0829FADB0830521C802A77
:102C5000F3DB30BD1C01002010B504460007000E58
:102C600000F0FCFAC4F11000C0B2214600F0EAF90D
:102C70006008BDE8104000F034B810B50021DA203B
:102C800000F0FEFA0021BDE81040122000F0F8BA72
:102C90004FF0000110B1C02000F0F2BAC820FBE7ED
:102CA00010B50021074C0A46002004EBC1031A545A
:102CB000401C0828FBDB491C8029F5DB02484270D8
:102CC000827010BD1C0100200000002010B50C46D1
:102CD000002100F0D5FA2046BDE81040002100F0A8
:102CE000CFBA10B504460021DB2000F0C9FA200756
:102CF000000EBDE81040002100F0C2BA70B50C46CD
:102D000005460021D52000F0BBFA45EA0410BDE8D5
:102D10007040C0B2002100F0B3BA10B500218D2080
:102D200000F0AEFA0021102000F0AAFA0021BDE860
:102D30001040AE2000F0A4BA10B500218D2000F0A4
:102D40009FFA0021142000F09BFA0021BDE81040FA
:102D5000AF2000F095BA00002DE9F0411E462DEDA0
:102D6000028B17460C4605469FED4D8BFDF795FBF4
:102D700053EC182BFDF7D0FB36D37F2D34D83846D3
:102D8000FDF78BFB53EC182BFDF7C6FB2CD37F2FE5
:102D90002AD82046FDF781FB53EC182BFDF7BCFB2E
:102DA00022D33F2C20D83046FDF777FB53EC182B6D
:102DB000FDF7B2FB18D33F2E16D84FF0FF38BD42B7
:102DC00016D1A64201D94FF001080027301B10FB95
:102DD00008F607E008FB0740C1B20122284600F0D0
:102DE00067F87F1CBE42F5DABDEC028BBDE8F081CE
:102DF000781BB44213D1AF4201D94FF0010800262D
:102E000010FB08F708E000BF08FB0650C0B2012223
:102E1000214600F04DF8761CB742F5DAE4E7AF4200
:102E200001D94FF0010800EE106A0026F8EE400AC2
:102E300000EE104AB8EE400A70EEC00A00EE100A2A
:102E4000B8EEC00A80EE808A10FB08F724E000BFCD
:102E500000EE106AB8EEC00A68EE000A00EE108AB2
:102E6000B8EEC01A00EE104AB8EE400A00EE810A31
:102E700010EE100AFDF73DFB9FED0B1B53EC112BE1
:102E8000FDF7E1F9FDF716FBC1B208FB0650C0B231
:102E9000012200F00DF8761CB742D9DAA4E7000051
:102EA0008DEDB5A0F7C6B0BE000000000000E03F09
:102EB00030B5084D01F0070405EBC00000EBD10070
:102EC00001230178A3400AB1194300E0994301703E
:102ED00030BD00001C0100204FF0000110B1A52002
:102EE00000F0CEB9A420FBE770B50122344DD40325
:102EF00021462846FEF783FC6420FEF78FFB002264
:102F000021462846FEF77BFCC820FEF787FB0122FE
:102F100021462846FEF773FC2B482A4901622B49BB
:102F200041632B4981632B4981622B4901632B4902
:102F300041622B49C1622B49C1632B4981602B49F6
:102F400041602B4901612B4941612B49C1602B49EB
:102F5000C1612B498161FFF7E0FE0F210020FFF7DF
:102F6000CDFE3F2000F04EF8002000F05FF800207A
:102F700000F080F9002000F069F90020FFF788FEDA
:102F8000FFF77BFEFF2000F069F90F21012000F020
:102F900059F80F20FFF7A5FE0020FFF79DFFFFF770
:102FA0003DFE10210020FFF791FE002000F036F8D2
:102FB000FFF7C2FEFFF774FEBDE8704000F020B9D5
:102FC00000180240592C0008040000201B2D0008A6
:102FD000392D00084D3200081D300008D92E000898
:102FE000912C000801320008A12C0008B12E000825
:102FF000A5300008B5310008592D0008352C00080F
:103000006330000810B504460021A82000F038F90C
:103010002046BDE81040002100F032B94FF0000119
:1030200010B1A72000F02CB9A620FBE710B504468C
:103030000021D32000F024F92046BDE810400021F3
:1030400000F01EB970B50C4605460021D92000F0ED
:1030500017F945EA0410BDE87040C0B2002100F045
:103060000FB92DE9F04706461F4690460C46481C0E
:10307000DDF8209001F08AFA002105460155084646
:1030800002E0315C2954401CA042FADB4B463A4630
:103090004146284600F08EF82846BDE8F04701F08A
:1030A000A7B900002DE9FF4F203882B01C465F28E9
:1030B00070D24FF01008C0B2CDE9000801250027FA
:1030C00099464FF0020A38464146B8F1100F29D010
:1030D00007DC0A290BD00C290ED0B8F10E0F11D144
:1030E0001BE0142923D0B8F1180F0BD126E000996A
:1030F0002A4A01EB81011EE00099294A01EB4101B6
:1031000020E00E5C6D1CEDB2554500D901254FF055
:10311000000BF00719D0012218E00099214AC1EBF9
:10312000C10108E0204A009902EB0111E9E700998A
:103130001E4AC1EB011102EB4101E2E700991C4A72
:1031400001EBC10102EB8101DBE70022214604987B
:10315000FFF7AEFE641CE4B27608A4EB090141451A
:1031600001D03F2C08D904984C46401C7F1CC0B2AB
:10317000FFB20125049006E00BF1010000F0FF0B07
:10318000BBF1080FC5D3681E0AFB07000199C0B246
:10319000884299D306B0BDE8F08F0000BC46000815
:1031A000724A0008E64E000818540008085A000841
:1031B0002A6500082DE9F041984614460646174650
:1031C000102518E004EB55017F2901D80A2809D100
:1031D00008EB050101F0FF083C46B8F13F0F0DD8A0
:1031E0000A2807D0434622462946FFF75BFF04EB37
:1031F0005500C4B2761C30780028E3D1BDE8F081D8
:1032000070B5114E002400BF04F1B000C0B200211F
:1032100000F036F80021084600F032F800211020B6
:1032200000F02EF85FF0000506EBC500005D0121FF
:1032300000F026F86D1CEDB2802DF5D3641CE4B2CD
:10324000082CE1D370BD00001C0100204FF00001EC
:1032500010B1A02000F014B8A120FBE710B504467F
:103260000021812000F00CF82046BDE8104000212C
:1032700000F006B84030C0B2002100F001B80000F4
:103280002DE9F341134C4FF4804509B3012229463F
:103290002046FEF7B4FA4FF400560022314620468D
:1032A000FEF7ADFA6FF07F473B46012269460A48B8
:1032B000FEF72EFE0028F7D1012231462046FEF708
:1032C0009EFA012229462046FEF799FABDE8FC81C4
:1032D0000022DCE7001802404809002010B5D0F8B1
:1032E000B420D0F8C010891AC0F8C410D0F8BC209F
:1032F000D0ED2A0A8B1A00EE103A90ED2B1AD0F876
:10330000B830B8EEC00A0B44544203EB440360EEFD
:10331000200A00EE101AB8EEC00A41EE000A00EED4
:10332000103A90ED2C1AB8EEC00A41EE000A90ED6A
:10333000320AB8EEC00A30EE800ABDEEC00A10EEC6
:10334000103AC0F8C830C0E92E21D0F8CC108B421A
:1033500001DDC0F8C810D0F8C82049428A4201DA1D
:10336000C0F8C81010BD704738B504461248134B5A
:103370000068B0FBF3F04FF47A7358430090606834
:10338000B0F5827F0DD10B460092002280212046AD
:1033900000F02CF870B1606D40F0200060650320F3
:1033A00038BD009830B1401E009020688068C0434E
:1033B0000006F6D5002038BD0801002000366E0159
:1033C0000EB501238DF8080064200090064801AA7C
:1033D00002A9406AFEF74AFE10B100208DF80400F1
:1033E0009DF804000EBD0000200A00202DE9F041E8
:1033F0001D4617460E460446DDF8188008E0681C96
:1034000006D0FEF701FAA0EB0800A8420BD255B196
:103410002068806836EA000030D00020B842EED143
:103420000020BDE8F0812068416821F0E0014160A2
:103430006068B0F5827F0BD1A068B0F5004F02D074
:10344000B0F5806F04D12068016821F0400101606F
:10345000A06AB0F5005F09D12068016821F400512D
:1034600001602068016841F400510160012084F886
:103470005100002084F850000320D2E70120CDE75E
:1034800070470000094808B5B0F8541309B200911C
:10349000B0F880120BB2B0F8AC11B0F8D8000AB294
:1034A00001B20348FDF7F9FA08BD00001C05002031
:1034B000C8080020FEF7AEB930B593B03021684699
:1034C000FCF7B6FE14210CA8FCF7B2FE1C48002540
:1034D000016841F080510160006800F08050119057
:1034E0001848016841F4804101600068022400F43A
:1034F0008040119001200090000401908001CDE9EE
:10350000064008AA0420A82182E813000B90684610
:10351000FEF7E2FA00B1FEE70CA90F2081E83100C6
:103520004FF4A0500F904FF48050109005210CA83C
:10353000FEF70AFA002800D0FEE713B030BD000005
:1035400040380240007000401048016841F47001AA
:1035500001600F48016841F0010101600C4A00213F
:103560000832116002680B4B1A400260031D0A4AC0
:103570001A60026822F48022026005480C30016063
:1035800002495806803908607047000088ED00E065
:1035900000380240FFFFF6FE10300024F0B502684C
:1035A000254C264D264E274F274B4FF0804CA042EE
:1035B00009D0604507D0A84205D0B04203D0B84238
:1035C00001D0984204D122F0700E4A6842EA0E02FD
:1035D000A0421BD0604519D0A84217D0B04215D0E8
:1035E000B84213D0984211D0184DA8420ED0184DB1
:1035F000A8420BD0174DA84208D0174DA84205D0BD
:10360000164DA84202D0164DA84203D122F44075AF
:10361000CA682A434D6922F080022A4302608A6800
:10362000C2620A688262A04201D0984201D109694F
:10363000016301214161F0BD000001400004004030
:1036400000080040000C0040000401400040014020
:10365000004401400048014000180040001C0040A8
:103660000020004010B5846842EA032224F47F441D
:103670000A432243826010BD826822F070020A432E
:1036800042F0070181607047F0B5026A22F0010242
:103690000262036A42688469124E24F073050C6862
:1036A0002C4323F002058B682B430D4DA84201D01B
:1036B000B04205D123F00807CB683B4323F0040355
:1036C000A84201D0B04205D14D6922F440721543A1
:1036D0008A692A4342608461496841630362F0BD9C
:1036E0000000014000040140F0B5026A22F010021F
:1036F0000262026A436884690D6824F4E64444EA7D
:1037000005248D6822F0200242EA05120F4D104E6A
:10371000A84201D0B04206D1CF6822F0800242EA2E
:10372000071222F04002A84201D0B04207D14D69F1
:1037300023F4406343EA85038D6943EA85034360CC
:103740008461496881630262F0BD000000000140AD
:1037500000040140F0B5026A22F480720262026A3B
:103760004368C46922F4007224F073050C68124E99
:103770002C438D6842EA05220E4DA84201D0B0428A
:1037800006D1CF6822F4006242EA072222F4806266
:10379000A84201D0B04207D14D6923F4405343EA17
:1037A00005138D6943EA05134360C4614968C16329
:1037B0000262F0BD000001400004014030B5026A21
:1037C00022F480520262046A4268C3690D6823F4DD
:1037D000E64343EA05238D6824F4005444EA0534A3
:1037E000084DA84202D0084DA84204D14D6922F4E8
:1037F000804242EA85124260C36149680164046202
:1038000030BD0000000001400004014010B5036A13
:10381000046A24F001040462846924F0F00444EA98
:10382000021423F00A020A438461026210BD10B53B
:10383000036A23F0100303628369046A23F470436C
:1038400043EA023224F0A00343EA011182610162DB
:1038500010BDFEE70FB4054B10B503A9044A02984A
:1038600000F024FD10BC5DF814FB00009D4300082F
:103870000C01002003B401984100009850EAC120D7
:1038800018BF04204A0D18BF40F0010040F2FF723B
:10389000B2EB515F08BF40F00200012808BF0520CD
:1038A00002B070470907090E002804DB00F1E02090
:1038B00080F80014704700F00F0000F1E02080F85D
:1038C000141D70470000000010B52F499FED2C1B00
:1038D0002DED020B84B0059820F000408842D8BF3F
:1038E0009DED040B2DDD2949884209D1049840B98A
:1038F0004FF0010000F0D4FC00F0A2FC06B010BDB7
:1039000005DB9DED040B00F08FFC06B010BD684692
:103910009DED040B00F0A0F810F0030004BF9DED36
:10392000021B9DED000B0CD001280ED09DED021B5B
:103930009DED000B022817D0012000F0DDFB06B042
:1039400010BD00F0A5FA06B010BD9DED021B9DED67
:10395000000B012000F0D0FB51EC100B81F0004176
:1039600006B041EC100B10BD00F092FA51EC100BB8
:1039700081F0004106B041EC100B10BD00000000CA
:103980000000000000000000FB21E93F0000F07F84
:1039900010B52F499FED2C1B2DED020B84B005981F
:1039A00020F000408842DCBF00209DED040B32DD9A
:1039B0002849884209D1049840B94FF0010000F02D
:1039C0006FFC00F03DFC06B010BD05DB9DED040B67
:1039D00000F02AFC06B010BD68469DED040B00F017
:1039E0003BF810F0030011D0012818D09DED021B08
:1039F0009DED000B02281AD000F04AFA51EC100B92
:103A000081F0004106B041EC100B10BD9DED021B92
:103A10009DED000B012000F06FFB06B010BD9DED89
:103A2000021B9DED000B00F033FA06B010BD012023
:103A300000F062FB51EC100B81F0004106B041EC4C
:103A4000100B10BD0000000000000000000000008E
:103A5000FB21E93F0000F07F2DE9F14F04462DEDF9
:103A6000020B2DED088B8AB09FEDE70B80ED020B6A
:103A7000139EE74826F0004585420ADC9DED120BB7
:103A8000002084ED000B0AB0BDEC088B03B0BDE84C
:103A9000F08FE0489FEDE0AB9FEDE1BBA84247DD32
:103AA000E14F9FEDE39B9FEDE48B9DED120B53ECFB
:103AB0001A2B51EC100B002E1CDDFCF765FC41ECC1
:103AC000100BBD4208D053EC1B2B51EC100BFCF734
:103AD0005BFCC4E900010BE053EC192B51EC100B1B
:103AE000FCF752FC53EC182BFCF74EFCC4E9000128
:103AF0000120C8E7FCF7A7FB41EC100BBD4208D042
:103B000053EC1B2B51EC100BFCF79DFBC4E900019F
:103B10000BE053EC192B51EC100BFCF794FB53EC1E
:103B2000182BFCF790FBC4E900014FF0FF30AAE727
:103B3000C348A84279DB9DED120B51EC100B00F04D
:103B400020FC41EC180B9FEDC00B53EC102BFCF745
:103B500021FC9FEDBF1B53EC112BFCF774FBFCF712
:103B6000A9FC0746FCF788FC41EC190B53EC1A2B17
:103B7000FCF710FC53EC182BFCF709FC41EC180B7C
:103B800053EC1B2B51EC190BFCF704FCDFF8C8A21B
:103B900041EC100B4FEA15580125FA4453EC102B59
:103BA00051EC180BFCF7F0FB032DC4E900013DD0EC
:103BB000C1F30A5005EB4511A8EB00001139814211
:103BC00034DA0AEB051BB0EE48AA9BED000BF0EED1
:103BD00068AA53EC102B51EC190BFCF7DBFB41EC02
:103BE0001B0B51EC1A0B53EC1B2BFCF7CDFB41ECE0
:103BF000180B51EC1A0B53EC182BFCF7C5FB53ECCC
:103C00001B2BFCF7C1FB9BED020B41EC1A0B53EC99
:103C1000102B51EC190BFCF7BDFB53EC1A2BFCF7E6
:103C2000B3FB41EC100B6D1CB8E70EE0002EA8BFF3
:103C30003846BFF628AF94ED000B51EC100B81F025
:103C40000041C4E9000178421DE7C6F3130040F4C7
:103C5000801EC6F30A50A0F2F530471100F01F0590
:103C6000C5F12000DDF848B00890002006900790CC
:103C70000520EC467949002D07EB0002794408BF86
:103C800051F8221009D051F8223001EB8201AB40EB
:103C90004A68089922FA01F11943A1FB0E26A1FBFB
:103CA0000B131A449A4234BF0123002303EB060886
:103CB0000CEB8003D3E901A60E448E4234BF0121F0
:103CC000002192448A4411B1924502D903E0924501
:103CD00001D2012100E00021C3E901A641444CF8D2
:103CE0002010011EA0F10100C4DC029800F1005078
:103CF000850F0298DDE903678000DDF81480FCF78A
:103D0000BBFB41EC1A0B3046FCF7C7FB9FED541B85
:103D100053EC112BFCF73EFB41EC1B0B3846FCF738
:103D2000BCFB9FED511B53EC112BFCF733FB41EC1B
:103D3000180B4046FCF7B1FB9FED4D1B53EC112BCC
:103D4000FCF728FB41EC190B51EC180B53EC192B29
:103D5000FCF779FA53EC1B2BFCF775FA53EC1A2B92
:103D6000FCF771FACDE90801002008909DED080BE1
:103D700053EC1A2B51EC100BFCF706FB53EC1B2BEE
:103D8000FCF702FB53EC182BFCF7FEFA53EC192B53
:103D9000FCF7FDFA9FED381B53EC112BFCF7FAFAF8
:103DA0009FED370B41EC180B53EC102B9DED080BDE
:103DB00051EC100BFCF7EEFA53EC182BFCF743FA1E
:103DC0009FED310B41EC180B53EC102B9DED080BC4
:103DD00051EC100BFCF7DEFA53EC182BFCF733FA1E
:103DE00041EC100B139810F0004F06D06D4251ECCF
:103DF000100B81F0004141EC100B284684ED000BC4
:103E000041E600000000000000000000000000008B
:103E1000FB21E93F7CD9024000004054FB21F93FDF
:103E20003163621A61B4D03DFB21F93F000000000C
:103E30000000601A61B4D03D7370032E8A19A33B51
:103E4000FB2139410000000083C8C96D305FE43FA9
:103E5000000000000000E03F2A3700007836000034
:103E6000000000000000103E000000000000103CB8
:103E7000000000000000103A182D4454FB21F93DC9
:103E80003326A611460B113C00000054FB21F93DDE
:103E900010B52DED040B2DED088B82B0B0EE419ADC
:103EA000F0EE619A0B9820F000449FED4BABB4F11B
:103EB000795F11DA9DED0A0B51EC100BFCF7FAFA61
:103EC000002801BFB0EE4A0AF0EE6A0A02B0BDEC6B
:103ED000088B04BF04B010BD9DED0A0B53EC102BF2
:103EE00051EC100BFCF756FA41EC180B3C4806213C
:103EF000B0EE480AF0EE680A784400F081F853EC1E
:103F0000182B51EC100BFCF745FA9DED0A0B41EC18
:103F10001B0B53EC192B51EC100BFCF73BFA41EC4B
:103F2000190B53EC1B2B51EC180BFCF733FA53EC29
:103F3000192BFCF729FA9FED2C0B41EC190B53ECD4
:103F4000102B51EC180BFCF725FA41EC100B28480C
:103F5000844210DA53EC192B51EC100BFCF714FAD5
:103F600053EC1A2BFCF713FA41EC100B02B0BDEC2A
:103F7000088B04B010BD1F48A042BCBF9FED1E1BA4
:103F80008DED001B06DBA4F50010019000200090D1
:103F90009DED001B51EC100B53EC112BFCF7F4F9C9
:103FA0009DED000B41EC180B53EC102B51EC1A0B50
:103FB000FCF7EAF941EC1A0B53EC192B51EC180BF6
:103FC000FCF7E2F953EC1A2BFCF7E1F941EC100B8A
:103FD000CCE7000000000000000000000000F03FFF
:103FE0009C33000000000000000000000000E03FE3
:103FF0003333D33F0000E93F000000000000D23F10
:1040000070B504462DED028B4D1E00EBC500B0EEE1
:10401000408AF0EE608A90ED000B35F0060017D074
:1040200053EC182B51EC100BFCF7B4F941EC100BCE
:104030006D1E04EBC50090ED001B51EC100B53EC12
:10404000112BFCF700F941EC100B35F00600E7D11D
:10405000022D36D0042D1CD0062D1CBFBDEC028BCA
:1040600070BD53EC182B51EC100BFCF793F994ED49
:104070000A1B53EC112BFCF7E6F853EC182BFCF75A
:1040800089F994ED081B53EC112BFCF7DCF841EC9B
:10409000100B53EC182B51EC100BFCF77BF994ED43
:1040A000061B53EC112BFCF7CEF853EC182BFCF746
:1040B00071F994ED040B53EC102BFCF7C4F841ECB0
:1040C000100B53EC182B51EC100BFCF763F994ED2B
:1040D000021B53EC112BFCF7B6F853EC182BFCF732
:1040E00059F994ED001B53EC112BFCF7ACF8BDEC27
:1040F000028B41EC100B70BD31B504462DED040B65
:104100002DED0A8BB0EE41BAF0EE61BA0B989DED41
:104110000A0B20F00040B0F1795F0DDA51EC100B82
:10412000FFF7A8FB042808BF00F09AF89DED0A0BE2
:10413000BDEC0A8B05B030BD53EC102B51EC100BCD
:10414000FCF728F941EC180B9DED0A0B53EC182BEA
:1041500051EC100BFCF71EF941EC190B2C48B0EE9A
:10416000480AF0EE680A05217844FFF749FF9FED01
:104170002ACBB0EE40AAF0EE60AA9CB353EC1C2B05
:1041800051EC190BFCF706F941EC1C0B53EC1A2B04
:1041900051EC190BFCF7FEF89FED210B41EC190BCC
:1041A00053EC102B51EC1B0BFCF7F4F853EC192BD0
:1041B000FCF7EAF853EC182BFCF7ECF853EC1B2B4C
:1041C000FCF7E2F853EC1C2BFCF7DEF89DED0A1B24
:1041D00053EC112BFCF7DBF8BDEC0A8B05B041EC7E
:1041E000100B30BDFFE753EC1A2B51EC180BFCF70A
:1041F000D1F853EC1C2BFCF726F853EC192BFCF7E9
:10420000C9F89DED0A1B53EC112BFCF71CF8E3E7F2
:104210002432000000000000495555555555C5BFD2
:10422000000000000000E03F10B553EC102B51ECF3
:10423000100BFCF708F841EC100B10BD000000005B
:104240009FED050B10B553EC102B51EC100BFCF748
:1042500009FA41EC100B10BD000000000000000046
:104260009FED050B10B553EC102B51EC100BFCF728
:1042700091F841EC100B10BD000000000000001090
:1042800002E008C8121F08C1002AFAD1704770471F
:10429000002001E001C1121F002AFBD1704700007D
:1042A0000149086070470000180100202DE9F84F0F
:1042B0009946924688460546002706E025280AD0FA
:1042C00051464A4690476D1C7F1C28780028F5D13E
:1042D0003846BDE8F88F002315F8011F18462E292F
:1042E00015D115F8011F04232A290DD06FF02F02D4
:1042F0002978A1F13004092C09D800EB800002EBE9
:10430000400008446D1CF3E758F8040B6D1C2A7834
:10431000002ADDD0632A07D0732A0FD010465146F9
:104320004A4690477F1C2AE018F8042B8DF800209D
:1043300000218DF801106E46012103E058F8046B4E
:104340004FF0FF315A074FF0000401D409E0641C1C
:1043500084420BDA8C42FADB325D002AF7D105E0A9
:10436000641C8C42FCDB305D0028F9D1274404E05A
:1043700016F8010B51464A469047641EF8D26D1C50
:10438000A3E782B0CDE9000121F0004001909DED4E
:10439000000B02B051EC100B7047000070B5134CCD
:1043A0000546102020706178002008317F2901D84F
:1043B0000A2D03D16070A1781031A1700B4EA17845
:1043C000361D3F2902D9A070B06880470A2D0AD057
:1043D0003669E8B2A37862782178B04760782178AE
:1043E00000EB51006070284670BD00000000002006
:1043F00010B5002821D0114B0022001F196803E0DE
:10440000814203D80A4649680029F9D152B113689C
:10441000841A9C4204D1006818441060104602E0DF
:10442000506000E0186039B102680B1A934203D162
:104430000B681A4402604968416010BD10010020F9
:104440000349098849BAC0F89410C0F89010704721
:10445000E80000202DED048BFDF7E4F9FFF72CF8C0
:10446000FCF744FBFEF7C6F9FEF7BEFAFEF764FA66
:10447000FEF76CF9FEF79CF9FEF73CFAFEF77EFAC0
:10448000284C20688047284880698047FEF75EFBFB
:104490002648FCF7DBFA9FED269B9FED278B40F229
:1044A0000126274D771C40F203284FF4017900BF05
:1044B000B0EE491AF0EE691AB0EE412AF0EE612A28
:1044C000B0EE480AF0EE680AFCF732FBFCF7E8F9B8
:1044D000FEF7D8FF3046FCF787FA3846FCF784FA37
:1044E0004046FCF781FA4846FCF77EFA15A0FFF734
:1044F000B1F995F82800FF2801D017A100E018A114
:1045000019A0FFF7A7F91BA0FFF7A4F91CA0FFF75C
:10451000A1F9E06B8047A06880470A20FDF77EF88C
:10452000C6E700000400002044000020C808002066
:104530000000000000000000000000000088A34010
:10454000200A0020205754525F626F6172642D323E
:104550002E30200A0000000066616C7365000000C8
:10456000747275650000000072656D6F74653A25A0
:10457000730000000A6C696E6561723A0000000009
:104580000A616E67756C61723A000000F0B50B301D
:10459000154D20F007010024144A0FE003688B42F8
:1045A0000BD38B4205D95E1A43184768C3E90067ED
:1045B00000E04368136002C004E0021D1068002898
:1045C000ECD12046002802D1286808B10020F0BDB7
:1045D000064A07481060074A121A22F00702C0E98B
:1045E000002401202860D7E71401002010010020DA
:1045F000540A0020500C00202DE9F0410F4D1646C2
:1046000088460446E98900226868FDF7F8F82046E4
:10461000FEF7D6FE0746002406E0FF20FEF7D0FE98
:1046200008F80400641CE4B2B442F6D3E98901221C
:104630006868FDF7E4F83846BDE8F081200A0020FC
:104640002DE9F0410F4C17460E460546E189002240
:104650006068FDF7D4F82846FEF7B2FE80460025D4
:1046600006E000BF16F8010BFEF7AAFE6D1CEDB2C6
:10467000BD42F7D3E18901226068FDF7C0F84046EA
:10468000BDE8F081200A002070B50B4C0E460546AF
:10469000E18900226068FDF7B2F82846FEF790FE37
:1046A00005463046FEF78CFEE18901226068FDF781
:1046B000A6F8284670BD0000200A00200000000077
:1046C000000000000000000000007C01000000006D
:1046D000000004000200040002005000F800500036
:1046E000F800500000009C01FE03CC0100003C00DB
:1046F000A400FC012401E001C0003C01DC016001D8
:10470000200100000E00000000000000000000007A
:10471000F800060300000000860178000000000099
:1047200050003000F8002000500020002000F80069
:104730002000200000000003000000000000200016
:1047400020002000200020000000000100000000E8
:1047500000000002800170000C000200F80004015B
:104760000401F800000000000801FC010001000045
:1047700000008C0164011C01000000008C01240178
:10478000DC010000600050004801FC014001000015
:104790009C011401F4000000F80014011401E4006D
:1047A000000000000400E4011C000000D800240107
:1047B0002401D800000078014401C401F800000081
:1047C00000000000100100000000000000002003B5
:1047D000000000000000200050008800040150008C
:1047E000500050005000500004018800500020008C
:1047F000000000001800040164001800F800FC012B
:104800009C01FC017800800178004C00F00100015F
:104810000401FC012401DC010000F8000C0104018A
:104820008C0000000401FC0104010401F8000401F3
:10483000FC01240174010C010401FC017401040059
:104840000000F8000C014401CC0140000401FC010F
:104850002401FC01040100000401FC01040100002A
:1048600000020402FC03040000000401FC01140126
:10487000EC0104010401FC01040100010001040039
:10488000FC018001FC0104010401FC013401FC0174
:104890000400F80004010401F80000000401FC0118
:1048A000240124001800F80084010401F80200002B
:1048B0000401FC012401FC000001980124012401F1
:1048C000CC0000000C000401FC0104010400FC0108
:1048D00004010401FC00040004007C0080017C0051
:1048E00004001C00E0013C00E0011C000401DC01AC
:1048F0002000DC01040104001C01E0011C01040093
:104900008C01640114018C01000000000000FE0312
:1049100002020000000004003800C0010002000094
:104920000202FE030000000000000200010002007D
:10493000000000020002000200020002000001006C
:10494000020000000000A00150015001F001000130
:104950000400FC011001F00100000000E000100163
:1049600030010000E00010011401FC010001E00032
:10497000500150016001000000001001FC01140111
:1049800004000000F003B002300310000401FC0139
:104990001001F001000100001001F401000100000D
:1049A00000021002F403000000000401FC014001B9
:1049B000B001000000000401FC0100010000F00152
:1049C0001000F0011000F0011001F0011001F001E1
:1049D0000001E00010011001E00000001002F003EF
:1049E0001003F0010000E00010011003F0030002CA
:1049F0001001F00110011000000000003001500112
:104A00009001000000001000FC01100100001000E7
:104A1000F0011001F0010001100070008001700031
:104A200010003000C001F000C00130001001B000E3
:104A3000F0011001000010027002800170001000EF
:104A40000000900150013001000000000000200033
:104A5000FE03020200000000FF030000000002024B
:104A6000FE03200000000000040002000400020019
:104A70000000000000000000000000000000000036
:104A800000007C02000000000000000004000300A1
:104A90000400030000009000FC039000FC03900061
:104AA000000018012402FE074402880100003800BB
:104AB0004403F800D0012C02C001C0013802E40216
:104AC0001801E002200104000300000000000000C3
:104AD000000000000000F8000603010400000000D0
:104AE00001040603F8000000000090006000F801D7
:104AF000600090000000000020002000F80020006E
:104B0000200000040003000000000000000020005E
:104B100020002000200020002000000000020000F3
:104B200000000000000000040003C00030000C0082
:104B30000200F801040204020402F801000000006F
:104B40000802FC0300020000000018038402440273
:104B50002402180200000801040224022402D801E1
:104B60000000C000A0009802FC03800200007C014D
:104B7000240224022402C4010000F001480224029D
:104B80002402C801000000000400C40334000C002B
:104B90000000D801240224022402D80100003801B8
:104BA000440244022401F80000000000000010024A
:104BB00000000000000000000000200600000000CF
:104BC0000000000060009000080104020000500096
:104BD0005000500050005000500000000402080136
:104BE00090006000000018000400C40224001800B7
:104BF0000000F0000801E402F402840278010002DF
:104C0000E0039C00F000800300020402FC03240285
:104C10002402D8010000F8010402040204020C017D
:104C200000000402FC0304020402F8010000040274
:104C3000FC03240274020C0300000402FC0324029F
:104C400074000C000000F000080104024402CC01D2
:104C500040000402FC0320002000FC0304020402C4
:104C60000402FC03040204020000000C040804080F
:104C7000FC07040004000402FC03240250008C031F
:104C800004020402FC030402000200020003FC030D
:104C90003C00C0033C00FC0304020402FC0330029D
:104CA000C400FC030400F801040204020402F80139
:104CB00000000402FC032402240018000000F80194
:104CC000840284020407F80500000402FC032402A5
:104CD00064009803000218032402240244028C0199
:104CE00000000C000402FC0304020C00000004009D
:104CF000FC0100020002FC01040004007C008003AF
:104D0000E0001C0004003C00C0037C00C0033C0029
:104D1000000004029C0360009C03040200000400E5
:104D20003C02C0033C02040000000C028403640245
:104D30001C020403000000000000FF07010401043E
:104D40000000000006003800C0010006000000005E
:104D500001040104FF070000000000000200010040
:104D60000200000000000008000800080008000819
:104D70000008000001000200000000000000000028
:104D80004001A002A002C00300020200FE032002B4
:104D90002002C00100000000C001200220026001CA
:104DA00000000000C00120022202FE0300020000F9
:104DB000C001A002A002C002000000002002FC030B
:104DC00022022202040000004005A00AA00A600A94
:104DD00020040202FE0320022000C00300020000A3
:104DE0002002E6030002000000000008000820087E
:104DF000E607000000000202FE03800060012002BE
:104E0000000002020202FE03000200020000E003B2
:104E10002000E0032000C00300002002E003200285
:104E20002000C00300020000C00120022002C001D7
:104E300000002008E00F200A2002C001000000004E
:104E4000C0012002200AE00F00082002E003400217
:104E500020002000000000006002A002A002200349
:104E6000000000002000F8032002200200002000C3
:104E7000E00100022002E00300022000E000000345
:104E8000E0002000000060008003E000800360007C
:104E90000000200260038000600320020000200860
:104EA000E00800050003E000200000002002A0034D
:104EB000600220020000000000002000FF07010443
:104EC0000000000000000000FF0F000000000000D4
:104ED0000104DF07200000000000020001000100C3
:104EE00002000100000000000000000000000000BF
:104EF00000000000000000000000FC0D00000000A9
:104F000000000000080004000A0004000200000085
:104F10001001D00F3C011001D00F3C010000000037
:104F200038064408FE1F8408180700007800840C27
:104F30007803B0074C088007000080077808C40990
:104F40003806C00B40080004000012000E000000EC
:104F5000000000000000000000000000F0030C0C46
:104F600002100000000002100C0CF0030000000012
:104F70000000000090006000F80160009000000058
:104F8000800080008000F00780008000800000002A
:104F90000024001C000000000000000080008000D1
:104FA000800080008000800080000000000C000C69
:104FB000000000000000000000000010000E800152
:104FC00060001C000200F003080404080408080440
:104FD000F0030000000008080808FC0F00080008A3
:104FE00000000000180C040A0409C408380C000072
:104FF00000001806040844084408B8070000000030
:10500000800160011009FC0F0009000000007C060F
:10501000240824082408C4070000F00348042408D6
:1050200024082808C007000000000C000400840FBA
:1050300074000C0000003807C40844084408C40881
:105040003807000078008404840884084804F003CA
:105050000000000000000000600C600C0000000078
:1050600000000000000040180000000000000000E8
:10507000C0002001100208040408000020012001E3
:105080002001200120012001200100000408080463
:1050900010022001C0000000000030000800880D50
:1050A000480C30000000F0030804E409140AF40B73
:1050B000080AF0050008000EE0091801E009000EDA
:1050C00000080808F80F880888088808700700009A
:1050D000E00310040808080808083804000008085D
:1050E000F80F080808081004E00300000808F80F8B
:1050F00088088808C809180C00000808F80F8808F4
:105100008800C80108001000E0031004080808081F
:105110000809380700010808F80F88088000880887
:10512000F80F0808000008080808F80F0808080821
:105130000000003008200820F81F080008000000C8
:105140000808F80F8808C000280B180C0808080881
:10515000F80F080800080008000C00000808F80F05
:105160007800800F7800F80F08080808F80F380852
:10517000C0010806F80F0800E0031004080808083A
:105180001004E00300000808F80F88088800880071
:1051900070000000E0031004080A080A101CE01365
:1051A00000000808F80F4808C8004803300C000841
:1051B0000000300C4808880888081807000018000C
:1051C00008000808F80F0808080018000800F80789
:1051D000080800080808F807080008003800C80395
:1051E000000CC803380008000800F801000FF800A0
:1051F000000FF80108000808180C680B800068030D
:10520000180C0808080018006808800F68081800C3
:1052100008001008080E880948083808080C000023
:10522000000000000000FE1F02100210000000003D
:1052300004003800C001000E001000000000021041
:105240000210FE1F0000000000000000000002002D
:1052500001000100020000000020002000200020CA
:1052600000200020002000000100010002000000DA
:105270000000000000008004400A40094009800F3F
:1052800000080400FC0F40084008400880070000A8
:1052900000008007400840084008C00400000000EB
:1052A0008007400840084408FC0F00080000800701
:1052B0004009400940098005000040004008F80FFF
:1052C000440844080800000000008015402A402AD5
:1052D000C029401000000408FC0F8008400040086E
:1052E000800F0008000040084008CC0F00080008AC
:1052F00000000000002040204020CC1F00000000E3
:105300000408FC0F000A4003C00C40080000000025
:1053100004080408FC0F0008000800004008C00F43
:105320004000C00F4000800F00084008C00F8008F8
:1053300040004008800F0008000080074008400837
:105340004008800700004020C03F40284008400837
:105350008007000000008007400840084028C03F48
:10536000002040084008C00F8008400840000000AE
:105370000000800C40094009400AC0040000000001
:1053800040004000F00F4008400800004000C00707
:10539000000800084004C00F00084000C00040039F
:1053A000000C4003C00040004000C003000CC003DC
:1053B000000CC003400000004008C00C0003C00CFB
:1053C000400800004020C0204023001C4003C000D3
:1053D00040000000C008400C400BC008400C00001A
:1053E00000000000000080007E1F0210000000008E
:1053F00000000000FF3F000000000000000002105D
:105400007E1F80000000000000000000020001007C
:105410000200040002000000000000000000000084
:105420000000000000000000000000000000F83351
:105430000000000000000000000010000C0002004E
:1054400010000C000200000000004004C03F78047F
:105450004004C03F780400000000701888208820B5
:10546000FCFF0821301E0000F0000831F00C800322
:10547000601E1821001E0000001EF0210823882C49
:105480007019002700210010000012000E0000001B
:105490000000000000000000000000000000E00725
:1054A00018180420024000000000024004201818D0
:1054B000E007000000000000400240028001F00F01
:1054C00080014002400200000000000100010001D4
:1054D000E00F0001000100010000009000700000DA
:1054E00000000000000000000000000100010001B9
:1054F0000001000100010000000000300030000049
:10550000000000000000000000000060001800071C
:10551000C0003800040000000000E00F1010082058
:1055200008201010E00F00000000000010201020E4
:10553000F83F0020002000000000703008280824F8
:1055400008220821F030000000003018082008214F
:1055500008218822701C00000000000680054024FD
:105560003024F83F002400240000F8198820882007
:1055700088200811080E00000000E00F101188209C
:1055800088209020001F0000000018000800083E3E
:1055900088016800180000000000701C88220821A3
:1055A00008218822701C00000000F0010812082267
:1055B00008221011E00F0000000000000000C030C1
:1055C000C03000000000000000000000000080E08B
:1055D0000000000000000000000000018002400404
:1055E0002008101008200000000040024002400285
:1055F0004002400240020000000008201010200875
:1056000040048002000100000000700048000830E3
:105610000837880070000000C0073018C827282805
:10562000E82F1028E01700000020003CC0233802BB
:10563000E0020027003800200820F83F882088205A
:1056400088207011000E0000C007301808200820C4
:1056500008200810380800000820F83F082008201B
:1056600008201010E00F00000820F83F8820882054
:10567000E8230820101800000820F83F8820880040
:10568000E803080010000000C007301808200820B8
:105690000822381E000200000820F83F08210001FF
:1056A00000010821F83F0820000008200820F83FEA
:1056B000082008200000000000C00080088008804A
:1056C000F87F0800080000000820F83F8820C0018B
:1056D00028261838082000000820F83F082000205D
:1056E00000200020003000000820F83FF801003EB4
:1056F000F801F83F082000000820F83F3020C000E3
:1057000000070818F83F0800E00F101008200820D4
:1057100008201010E00F00000820F83F08210801C1
:1057200008010801F0000000E00F10100828082808
:1057300008301050E04F00000820F83F8820880013
:105740008803880C70300020000070388820082101
:1057500008210822381C0000180008000820F83F23
:1057600008200800180000000800F81F082000208A
:1057700000200820F81F080008007800880700387B
:10578000000EC801380008000800F803003EF801C8
:10579000003EF8030800000008201830682C800341
:1057A0008003682C1830082008003800C820003F0B
:1057B000C8203800080000001020083808260821FA
:1057C000C820382008180000000000000000FE7FFC
:1057D0000240024002400000000004003800C00106
:1057E0000006003800C000000000024002400240F5
:1057F000FE7F000000000000000000000400020026
:105800000200040000000000008000800080008092
:105810000080008000800080000002000200040080
:105820000000000000000000000000198024802417
:105830008012003F002000001000F03F0011802087
:1058400080200011000E00000000000E00118020DA
:1058500080208020001100000000001F8020802098
:1058600080209010F03F00200000001F8024802442
:105870008024802400170000000080208020E03F6A
:1058800090209020200000000000006B8094809405
:1058900080948093806000001020F03F0021800001
:1058A00080008020003F0020000080209820983F4A
:1058B0000020002000000000000000C00080808068
:1058C0009880987F000000001020F03F0024000620
:1058D0008029803080200000000010201020F83F38
:1058E00000200020000000008020803F80208000F9
:1058F000803F80208000003F8020803F002180008A
:1059000080008020003F00200000001F80208020B9
:1059100080208020001F0000808080FF0091802078
:1059200080200011000E00000000000E00118020F9
:105930008020009180FF008080208020803F002117
:10594000802080008001000000000033802480243B
:105950008024802480190000000080008000E01F67
:1059600080208020001000008000801F0020002088
:1059700000208010803F002080008003800C0030D9
:10598000800C8003800000008001800E0030800CBD
:105990008007003880068001000080208031800E62
:1059A000002E803180200000800080818086007879
:1059B0000018800680018000000080218030802C4B
:1059C00080228021803000000000000000000000E4
:1059D0000001FC3E02400240000000000000000008
:1059E000FFFF00000000000002400240FC3E0001FA
:1059F00000000000000000000000020001000200A2
:105A0000020004000200000000000000000000008E
:105A10000000000000000000000000000000000086
:105A20000000000000000000000000000000000076
:105A30000000F89F010000000000000000000000CE
:105A4000000000000000002000001800000E000010
:105A50002600001800000E000006000000000000F4
:105A60000000000000C03000C0FF01F83000C0306E
:105A700000C03000C0FF01F83000C030000000005E
:105A8000000000E0E000100101080201FCFF07082F
:105A90000201088400707800000000000000F0039C
:105AA0000008040008C401F03B00000700E0FC000F
:105AB00018020100020100FC000000000078000054
:105AC0008400F00301080E01083101F0C00000E27B
:105AD00000001E01000201008000000000260000FE
