:020000040800F2
:10000000984A002099010008771D0008D71B0008B6
:10001000751D0008050A00085925000800000000A9
:1000200000000000000000000000000001010008C6
:10003000450A0008000000004501000815240008DA
:10004000B3010008B3010008B3010008B3010008C0
:10005000B3010008B3010008B3010008B3010008B0
:10006000B3010008B3010008B3010008B3010008A0
:10007000B3010008B3010008B3010008B301000890
:10008000B3010008B3010008B3010008B301000880
:10009000B3010008B3010008B3010008B301000870
:1000A000B3010008B3010008B3010008B301000860
:1000B000B3010008B3010008E1240008B3010008FF
:1000C000B3010008B3010008B3010008B301000840
:1000D000B3010008B3010008B3010008B301000830
:1000E000490A0008B3010008B3010008DFF80CD08A
:1000F00000F072FC0048004729330008984A0020AD
:10010000224B19680868B0E8F00F80F30988BFF344
:100110006F8F4FF0000080F311884EF00D0E704786
:100120000000000006480068006880F3088862B696
:1001300061B6BFF34F8FBFF36F8F00DF00BF00BF0B
:1001400008ED00E0EFF30980BFF36F8F0F4B1A68E3
:1001500020E9F00F106008B54FF0500080F31188CF
:10016000BFF34F8FBFF36F8F04F088F94FF000009B
:1001700080F31188BDE8084019680868B0E8F00FFE
:1001800080F30988BFF36F8F704700BF78000020AD
:10019000EFF3058070470000064880470648004797
:1001A000FEE7FEE7FEE7FEE7FEE7FEE7FEE7FEE727
:1001B000FEE7FEE799240008ED000008202A04DB92
:1001C000203A21FA02F00021704721FA02F3D040D0
:1001D000C2F12002914008431946704740EA0103EA
:1001E0009B0703D009E008C9121F08C0042AFAD2ED
:1001F00003E011F8013B00F8013B521EF9D27047B1
:10020000D2B201E000F8012B491EFBD27047002258
:10021000F6E710B513460A4604461946FFF7F0FF05
:10022000204610BDF0B480EA0102D40F4200B2EBC8
:10023000410F02D20246084611464A0042D0C30D81
:10024000DDB2C1F3C752AD1A202D35DAC1F3160164
:1002500041F4000204B15242C5F1200602FA06F14F
:100260002A411044B3EBD05F23D0C4B1012DA0EBE1
:10027000C35009DCF0BC4FF0004202EAC352DBB2CB
:1002800000F5000000F0CFBA400000F1807000EBF4
:10029000C350A0F1807040EAD170490009E04908DC
:1002A00041EAC071A0EBC35000F50000400800EB2C
:1002B000C350F0BC00F0AEBA6142012202EB410132
:1002C000001BF6E7F0BC704781F00041AAE780F020
:1002D0000040A7E780EA010210B502F000434000A9
:1002E00022D04A001FD0010E01EB1261C0F356006C
:1002F000C2F3560240F4000042F40002A0FB0220C8
:1003000000047F39140400D0401C50EA124001D48C
:100310004000491EC2B20C0604EBD010401C40083D
:10032000802A02D003E0002010BD20F00100002947
:1003300000DA0020184310BD30B480EA010202F058
:10034000004530F0004221F0004013D090B1C30DC1
:10035000D40DC2F31601C0F31600E41A41F40001F3
:1003600040F400027D34914201D3641C00E0490056
:10037000002C02DA30BC002070474FF4000000234C
:10038000914201D3891A034340084FEA4101F7D152
:1003900051B1914202D14FF0004105E002D24FF03D
:1003A000010101E06FF0010103EBC450284430BCAF
:1003B00000F030BA420005D0C0F3C7525242914219
:1003C00001DC0020704700EBC15070472DE9FE4F63
:1003D000804681EA0300C00F0C46009021F00041E6
:1003E00023F00045B8EB0200A94105D24046214662
:1003F00090461C460B46024623F00040104347D06F
:10040000270DC7F30A00C3F30A510290401A019066
:1004100040286BDAC3F3130040F4801B0098924627
:1004200020B10023D2EB030A63EB0B0B0198594672
:10043000C0F14002504600F0CCF906460D46504649
:100440005946019A00F0D4F910EB080061410024EC
:1004500087EA115284EAE7731A4340D0009A62B3E4
:10046000019A012A4FEA075215DC001B61EB0201D9
:100470004FF0004202EA0752CDE90042001C41F56C
:10048000801132462B4600F058FA03B0BDE8F08FD9
:1004900040462146F9E7001B61EB0201001C41F5D3
:1004A000801300185B412018A2F5001747EB0301E9
:1004B00040EAD570B6196D4111E06D084FEA360675
:1004C00045EAC0754FEA0752001B61EB0201001CB0
:1004D00041F5801149084FEA300000195141324678
:1004E0002B4603B0BDE8F04F00F018BA0098012287
:1004F00040000023D0EB020263EBE073009821463A
:100500004FEAE074B8EB000061EB0401E9E783F027
:1005100000435BE781F0004158E72DE9FE4F81EA97
:10052000030404F0004421F0004100944FF0000B5C
:1005300023F0004350EA01045ED052EA03045BD08A
:10054000C3F30A54C1F30A552C44A4F2F3340194C2
:10055000A0FB0254C1F3130141F48011C3F3130350
:1005600043F4801301FB024400FB034E840A970A04
:1005700044EA815447EA8357A4FB076802958D0A31
:1005800005FB07854FEA932C04FB0C542705029DBD
:100590004FEA065847EA1637B5EB08056EEB070C2D
:1005A000870E920E47EA811742EA8312A7FB0201E7
:1005B000B6EB0B0164EB00042B0D43EA0C335E1821
:1005C00044EB1C50DA465146E7FB0201C5F3130425
:1005D0004FEA0B3343EA14534FEA0432019C43EAD7
:1005E0000603A4F10C040294009CCDE900B400F0D1
:1005F000A4F903B0BDE8F08F00200146F9E72DE92A
:10060000F04D81EA030404F0004B21F0004514464C
:100610004FF0000A23F0004150EA050220D054EACE
:1006200001021DD0C5F30A570246C5F31303C1F3F7
:100630001300C1F30A5640F4801543F48013A7EB6E
:100640000608101BD64608F2FD3873EB050002D3EE
:1006500008F1010801E092185B41B8F1000F03DADC
:1006600000200146BDE8F08D00204FF480110646C1
:1006700084460EE0171B73EB050705D3121B63EBD3
:10068000050306434CEA010C49084FEA3000921872
:100690005B4150EA0107EDD152EA030012D082EA31
:1006A000040083EA0501084305D0101BAB4106D2C4
:1006B0000122002306E000224FF0004302E06FF029
:1006C000010253101AEB06004CEB085110EB0A0024
:1006D00041EB0B01BDE8F04D00F020B9C10F80EAFD
:1006E000E0700844CA079623002100F09CB89623C6
:1006F0000022114600F097B80EB5C10F80EAE070F5
:100700000844CA07002140F233438DE80E000A4630
:100710000B4600F012F903B000BD00F0004220F0DB
:100720000040C10DC0F3160040F400007F2901DA3B
:1007300000207047962903DCC1F19601C84001E012
:1007400096398840002AF4D04042704720F000409B
:10075000C10DC0F3160040F400007F2901DA00202B
:100760007047962903DCC1F19601C840704796395D
:100770008840704700F0004230F000400AD0C10DC0
:1007800001F56071C0F3160042EA0151C20840074A
:100790001143704700200146704701F0004330B418
:1007A00021F0004150EA010206D00A0DA2F5607264
:1007B000C1F31301002A02DC30BC00207047440F53
:1007C00044EAC104C100E01830BC00EBC25000F0A4
:1007D00021B8202A04DB203A00FA02F100207047F9
:1007E0009140C2F1200320FA03F31943904070476F
:1007F000202A06DBCB17203A41FA02F043EAE073E5
:1008000006E041FA02F3D040C2F1200291400843D1
:10081000194670470029A8BF7047401C490008BF0F
:1008200020F00100704710B4B0FA80FC00FA0CF020
:1008300050EA010404BF10BC704749B1CCF1200458
:1008400021FA04F411FA0CF118BF012121430843E5
:10085000A3EB0C01CB1D4FEA00614FEA102042BF11
:10086000002010BC704700EBC35010440029A4BF07
:1008700010BC7047401C490008BF20F0010010BCAC
:100880007047F0B4002802DCF0BC00207047C0F3D1
:10089000C751C0F3160040F40000CA0701D1400060
:1008A000491E3F2202EB6105002211464FF400066B
:1008B00026FA01F31344D418844201D8001B1A46C7
:1008C0004000491C1729F3DD5100814202D24FF04C
:1008D000FF3100E0002102EBC550F0BCFFF79ABFEA
:1008E00010B541000CD0C0F3C751962908DC7E2911
:1008F00009DC06DB410204D000F0004040F07E50ED
:1009000010BD002010BDC1F19604C4F1200100FA11
:1009100001F1E040FFF77EFFA04010BD10B5141EAE
:1009200073F1000408DA401C41F1000192185B41A8
:100930001A4301D120F0010010BD2DE9F04D92467F
:100940009B4611B1B1FA81F202E0B0FA80F2203296
:100950009046FFF73EFF04460F4640EA0A0041EA90
:100960000B0153465A46084313D0114653EA01007F
:1009700019D0C8F140025046FFF720FC05460E464C
:10098000504659464246FFF724FF084305D0012050
:1009900004E020463946BDE8F08D0020054346EAD4
:1009A000E0762C4337430A986305E40AA0EB08007D
:1009B0000022FD0A44EA47540A3002D500200146CD
:1009C000E9E7010510196941DDE9084500196941A8
:1009D000BDE8F04DA2E70000064C074D06E0E068D8
:1009E00040F0010394E8070098471034AC42F6D376
:1009F000FFF780FB5C5000087C5000080A2003F0E1
:100A000043FCFBE7FEE70000074C02F001FC02F0AC
:100A10001FFC054922781831044801F017FB01201A
:100A200003F032FCF1E7000018000020280F00203E
:100A300008B54FF0FF34214623466A46002004F0F3
:100A40004BF9F8E77047000010B5044801F09EFB31
:100A5000BDE810404FF4806000F01EBA280F00205F
:100A600008B5084E4FF0FF344FF400552146234699
:100A70006A46002004F030F92946304600F0FEFABC
:100A8000F4E7000000100140FEE790F82020012A62
:100A900007D0022A05D0416A41F480214162012039
:100AA0007047006842690A43426100207047F0B510
:100AB00090F820500468A468012D05D0022D03D0C1
:100AC000416A41F4802153E014F0406F01D1E50008
:100AD0004BD5C4F30164022C03D9416A41F40001EF
:100AE00046E00125A5401D608B684FF4C0759BB1A1
:100AF000CE6833434E6843EAC603066805EB041725
:100B0000F3514FF4C273076803EB04130E69FE50F0
:100B1000097D012905D009E00E88CB6843EA4653D8
:100B2000EBE70168CE5846F48076CE501179D2F8C2
:100B300005304FF4C67641EA0323016806EB04163C
:100B40008B511178D2F801204FF4C47341EA02218D
:100B5000026803EB0413D150006805EB04114258FE
:100B600042F0010242500020F0BD416A41F4001100
:100B700041620120F0BD10B590F820300268012BD1
:100B800007D0022B05D0416A41F480214162012047
:100B900010BDD2F8000240F00100C2F80002087D4A
:100BA00000F01F0301209840D2F81C328343C2F8A2
:100BB0001C32CB69B3B9D2F80C328343C2F80C3281
:100BC0008C894B6864F31F434C6902EBC404C4F87E
:100BD00040320C890B6864F31F434C6902EBC40478
:100BE000C4F84432CB69012B16D1D2F80C3203433E
:100BF000C2F80C320C884B6864F31F434C6902EB5B
:100C0000C404C4F840320C89CB6864F31F434C69B8
:100C100002EBC404C4F844328B69002BD2F80432CE
:100C20000ED00343C2F804320B69002BD2F8143201
:100C300008D00343C2F81432096A012904D008E03D
:100C40008343EFE78343F5E7D2F81C120143C2F870
:100C50001C12D2F8000220F00100C2F800020020AD
:100C600010BD70B5040003D094F8200010B104E06A
:100C7000012070BD204600F081F82068016821F055
:100C80000201016000F006FA0546052604E000F0C6
:100C900001FA401B0A2811D8206840688007F6D462
:100CA0002068016841F00101016000F0F3F9054698
:100CB0000BE000F0EFF9401B0A2806D9606A40F407
:100CC0000030606284F82060D2E720684068C00786
:100CD000EFD0207E0128206801683DD021F08001FE
:100CE0000160607E01282068016838D021F0400151
:100CF0000160A07E01282068016833D021F0200126
:100D00000160E07E0128206801682ED041F01001CA
:100D10000160207F01282068016829D021F00801A6
:100D20000160607F01282068016824D021F004015F
:100D30000160D4E902010843D4E9041211430843D5
:100D40006168491E08432168C86100206062012073
:100D500084F82000002070BD41F08001C0E741F020
:100D60004001C5E741F02001CAE721F01001CFE7BB
:100D700041F00801D4E741F00401D9E710B586B08D
:100D80000021009101910291039100681949884264
:100D90002DD11948C16941F00071C161C16901F0EB
:100DA00000710491816941F0080181618069134CEF
:100DB00000F0080004904FF4807000900120029031
:100DC0006946204600F074F86115009102210191F6
:100DD000032103916946204600F06AF808494868F3
:100DE00020F4C04040F0E06040F48040486006B02D
:100DF00010BD00000064004000100240000C0140E3
:100E00000000014070B5044690F82000012804D08D
:100E1000606A40F40020606217E0022084F820003D
:100E20002068016821F00101016000F033F90546F6
:100E30000DE000F02FF9401B0A2808D9606A40F441
:100E400000306062052084F82000012070BD206819
:100E50004068C007EDD1606270BD00001CB5042879
:100E600015D10020019001A800900948002301221B
:100E70001946006803F040FE0198002807D0054994
:100E80004FF080500860BFF34F8FBFF36F8F1CBDD2
:100E90000400002004ED00E0044910B50A68024295
:100EA00002D00860FFF7DAFF10BD00001404014013
:100EB0002DE9F84FDFF8A491002409F1040A0AF1A2
:100EC000040B23464FF00F080BF1040EBEE0012780
:100ED000A7403A40BA4272D1DFF884C14D68A5EB11
:100EE0000C0665452BD00DDC032D34D005DC35B365
:100EF000012D19D0022D2FD11BE0112D16D0122D4E
:100F00002AD119E0B6F5881F19D006DCB6F5803F66
:100F100015D0B6F5801F1FD111E0B6F5001F0ED019
:100F2000B6F5041F18D10AE0CB6815E0CB681B1D8D
:100F300012E0CB6808330FE0CB680C330CE08B6811
:100F40002BB1012B4FF0080303D0476104E00423C9
:100F500002E0076100E00023FF2A01D8064601E015
:100F600000F104064FEA840501D9A5F12005376890
:100F700008FA05FC27EA0C0703FA05F547EA050716
:100F800037604D68ED0060D5364DAE6946F001061C
:100F9000AE61AD6924F0030605F001050095324D00
:100FA0007719BE68A5072D0F08FA05FC26EA0C067E
:100FB000DFF8B8C0604503D14FF0000C17E044E003
:100FC000DFF8ACC0604502D14FF0010C0FE0DFF854
:100FD000A4C0604502D14FF0020C08E0DFF898C0D1
:100FE000604502D14FF0030C01E04FF0040C0CFA05
:100FF00005FC4CEA060CC7F808C04D68D9F800603B
:10100000ED034D4601D5164300E096432E604D6832
:10101000DAF80060AD03554601D5164300E096436B
:101020002E604D68DBF80060ED025D4601D5164389
:1010300000E096432E604D68DEF80060AD02754614
:1010400001D5164300E096432E60641C0A6832FA0C
:1010500004F57FF43CAFBDE8F88F000000040140C8
:101060000000111000100240000001400008014083
:10107000000C01400010014000140140C2680A4207
:1010800001D041617047016170470AB10161704749
:101090000904FBE7014880687047000068000020F1
:1010A000024881680278114481607047680000201E
:1010B000074810B5016841F010010160032000F0FD
:1010C00095F8002000F006F800F03EF8002010BD72
:1010D0000020024000B5014687B000221E2000F02B
:1010E00065F81E2000F054F81348C16941F004016E
:1010F000C161C06905A900F004000690684600F0CF
:1011000023F900F041F90D494000B0FBF1F10D4821
:101110000B4A491E0260416040F2E7320021C0E9FB
:101120000321816000F069FC10B1012007B000BD0F
:10113000044800F07EFCF9E70010024040420F0036
:1011400000080040180800200F4808B5816941F0E8
:1011500001018161816901F001010091C16941F0E2
:101160008051C161C069002200F0805000900F21C1
:10117000901E00F01BF80549486820F0E06040F040
:101180000070486008BD00000010024000000140EF
:10119000002809DB00F01F02012191404009800076
:1011A00000F1E020C0F8001170470000F0B40E4BD1
:1011B0001B68C3F30223C3F10704042C00D90424E1
:1011C0001D1D072D01D2002300E0DB1E012606FABB
:1011D00004F56D1E0D409D409E40761E164045EA6A
:1011E0000601F0BC01F063BB0CED00E0064A00F024
:1011F000070110684FF6FF03184040EA0120034939
:1012000008431060704700000CED00E00000FA0594
:101210002DE9F0470D46040067D0DFF81881D8F8B3
:10122000000000F00700A8420CD2D8F8001021F00E
:1012300007012943C8F80010D8F8000000F00700A3
:10124000A84252D120683C4E810712D5400703D5F1
:10125000706840F4E06070602078000703D5706823
:1012600040F4605070607068A16820F0F00008439E
:1012700070602078C00727D06068012810D03168DE
:10128000022810D0890700292FDA716821F00301A4
:1012900001437160FFF7FEFE074641F288390CE01A
:1012A00031688903EFE78901EDE7FFF7F3FEC11B22
:1012B000494502D90320BDE8F0877068616800F0F5
:1012C0000C00B0EB810FF0D1D8F80010404601F0CF
:1012D0000701A9420BD9016821F0070129430160E8
:1012E000006800F00700A84201D00120E3E7207861
:1012F000400705D57068E16820F4E060084370603D
:101300002078000706D57068216920F4605040EA13
:10131000C100706000F048F87168084AC1F3031119
:10132000515CC8400649086006480068FFF7D2FED5
:101330000020C0E7002002400010024018500008C2
:10134000740000206C0000200F2202600C4A5368D9
:1013500003F003034360536803F0F00383605368B2
:1013600003F4E063C36052684FF4E06303EAD2021F
:1013700002610448006800F0070008607047000040
:1013800000100240002002400448054900684968F6
:10139000044AC1F30221515CC84070477400002028
:1013A000001002402850000812A085B00FC88DE838
:1013B0000F0014A0144B006804905968134801F002
:1013C0000C02042A10D0082A0ED1C1F38342C903AB
:1013D0001DF802000AD5596804AAC1F34041515CC6
:1013E0000A4A5043B0FBF1F005B070470849484342
:1013F000FAE7000002030405060708090A0B0C0DB2
:101400000E0F1010010200000010024000127A00BE
:1014100000093D002DE9F84F04006FD02078BE4D43
:10142000C00747D06868C0F38100012807D068680A
:10143000C0F38100022809D16868C00306D5286876
:10144000800337D560680028E7D033E06068B0F5E6
:10145000803F0BD010B1B0F5A02F11D0286820F438
:1014600080302860286820F4802002E0286840F45A
:1014700080302860606888B1FFF70CFE064609E0FE
:10148000286840F480202860F0E7FFF703FE801B07
:10149000642873D828688003F7D50BE0FFF7FAFDBE
:1014A000064604E0FFF7F6FD801B6428F1D82868A3
:1014B0008003F7D42078DFF8648280074FF0010AB8
:1014C0004FF0000939D5686810F00C0F07D0686834
:1014D000C0F38100022809D16868C00306D42868D7
:1014E000800714D52069012808D110E02069B0B127
:1014F000C8F800A0FFF7CEFD064605E007E1FFF7BC
:10150000C9FD801B0228C4D828688007F7D5286841
:10151000616920F0F80040EAC10028600DE0C8F8D9
:101520000090FFF7B7FD064604E0FFF7B3FD801B10
:10153000022823D828688007F7D4207800072CD504
:101540007748A169D9B1C0F800A0FFF7A3FD06460E
:1015500004E0FFF79FFD801B02280FD8686A800710
:10156000F7D570484FF4FA510068B0FBF1F00090E5
:1015700000BF0098411E0091FAD20EE07CE0C0F856
:101580000090FFF787FD064604E0FFF783FD801B10
:10159000022871D8686A8007F7D4207840075BD5A5
:1015A000E8690027C00008D4E86940F08050E8618D
:1015B000E869012700F0805000905B480168C90588
:1015C00011D40168834641F480710160FFF762FD28
:1015D000064604E0FFF75EFD801B64284CD8DBF86C
:1015E0000000C005F6D5E06801280AD008B105283A
:1015F00013D0286A20F001002862286A20F0040035
:1016000002E0286A40F001002862E06841F2883B6D
:1016100088B1FFF73FFD064609E0286A40F0040064
:101620002862EEE7FFF736FD811B59455BD8286A33
:101630008007F7D50BE0FFF72DFD064604E0FFF726
:1016400029FD811B59454ED8286A8007F7D41FB160
:10165000E86920F08050E861E069A8B36968C1F3E7
:101660008101022946D00228484606D0C8F8600009
:10167000FFF710FD044639E035E04746C8F8600042
:10168000FFF708FD064604E0FFF704FD801B022873
:1016900029D828688001F7D4206AB0F5803F05D1A9
:1016A0006868A16820F4003008436860D4E9080144
:1016B0000843696821F4741108436860C7F860A0A2
:1016C000FFF7E8FC044605E023E0FFF7E3FC001B1E
:1016D000022808D828688001F7D51AE0FFF7DAFC5D
:1016E000001B022802D90320BDE8F88F286880017A
:1016F000F4D40EE00128F7D06868226A00F4803143
:10170000914204D1616A00F47010884201D0012036
:10171000EAE70020E8E70000001002400000424233
:1017200080044242740000200070004070B5040044
:1017300005D00025A56294F8510010B106E0012003
:1017400070BD84F85050204600F02EF8022084F836
:1017500051002068016821F040010160D4E90101D5
:101760000843D4E903121143084361690843218BFC
:1017700001F400710843E1690843216A0843A16A42
:10178000084321680860A069042101EA104021682B
:1017900048602068C16921F40061C161656501206C
:1017A00084F85100002070BD30B585B0002400944D
:1017B00001940294039400681549884225D1154884
:1017C000C16941F48041C161C16901F48041049162
:1017D000816941F00801816180690F4D00F00800C6
:1017E00004904FF4204000900220019003200390C9
:1017F00069462846FFF75CFB4FF48040CDE90004C2
:10180000694628460294FFF753FB05B030BD00003F
:101810000038004000100240000C01402DE9F84F54
:10182000044690F8500001250A9E1F4692468B46BA
:101830004FF0000801280ED0012084F85000FFF777
:1018400029FC814694F85100616801280CD0B1F55B
:10185000827F07D102E00220BDE8F88FA16809B9B4
:10186000042801D00220B6E0BBF1000F27D0BAF166
:10187000000F24D01FB394F85100042802D0052093
:1018800084F8510000206065C4F838A0E787A78776
:10189000C4F830B0E786A7862064606420680168D9
:1018A000490603D4016841F040010160E068B0F5E9
:1018B000006F606805D0E8B3012F43D079E00120C4
:1018C00089E008B1012F34D1206B21680088C860FD
:1018D000206B801C2063E08E401EE08629E020689B
:1018E000816889070DD5E18E59B1012D09D1216B90
:1018F0000988C160206B801C2063E08E401EE0865A
:10190000002520688168C9070BD0E18F49B1C06804
:10191000A16B0880A06B801CA063E08F401EE08755
:101920000125FFF7B7FBA0EB0900B04201D3701C03
:1019300050D100E006E0E08E0028D0D1E08F0028F2
:10194000CDD13CE0206B216800780873206B401CEF
:101950002063E08E401EE0862BE0206881688907C6
:101960000DD5E18E59B1012D09D1216B0978017393
:10197000206B401C2063E08E401EE086002520681E
:101980008168C9070BD0E18F49B1C068A16B0870AD
:10199000A06B401CA063E08F401EE0870125FFF78D
:1019A00079FBA0EB0900B04202D3701C01D011E01A
:1019B00086B1E08E0028D0D1E08F0028CDD14A46F4
:1019C0003146204600F086FC38B120204FF0010857
:1019D000606508E00320804605E0A06818B920682B
:1019E000C16880680090012084F85100002084F8CC
:1019F0005000404630E77047704710B5040003D0F0
:101A000094F83D0010B107E0012010BD002084F8DB
:101A10003C00204600F00CF8022084F83D00211D17
:101A2000206800F063FD012084F83D00002010BD17
:101A300070470168CA6842F00102CA6000688168A4
:101A400001F00701062903D0016841F0010101609E
:101A500000207047704770B50446006801694FF078
:101A60000005C943890715D4C168C943890711D442
:101A7000E91E0161012020772068806980072046E7
:101A800002D0FFF7E7FF04E000F098F8204600F0EE
:101A900096F8257720680169C943490717D4C168BA
:101AA000C943490713D46FF0040101610220207774
:101AB0002068806910F4407F204602D0FFF7CAFFFB
:101AC00004E000F07BF8204600F079F825772068E4
:101AD0000169C943090716D4C168C943090712D46B
:101AE0006FF008010161042020772068C069800739
:101AF000204602D0FFF7AEFF04E000F05FF820467A
:101B000000F05DF8257720680169C943C90617D43C
:101B1000C168C943C90613D46FF0100101610820E0
:101B200020772068C06910F4407F204602D0FFF77C
:101B300091FF04E000F042F8204600F040F82577DD
:101B400020680169C943C90708D1C168C943C907E9
:101B500004D1891E0161204600F032F82068016935
:101B6000C943090609D4C168C943090605D46FF001
:101B7000800101612046FFF73EFF20680169C943EB
:101B8000490609D4C168C943490605D46FF040012C
:101B90000161204600F01EF820680169C9438906EA
:101BA0000BD4C168C943890607D46FF020010161D5
:101BB0002046BDE87040FFF71FBF70BD70477047FB
:101BC00000680349884201D1FFF76ABA70470000F4
:101BD000000800407047FEE70F4810B50D4901604E
:101BE0000321416000214FF4E0228160C0E903122B
:101BF0004FF400124261017641768176C176017719
:101C00004177FFF72EF8002803D0BDE81040FEF71B
:101C10003BBF10BD006400409807002010B501F0E4
:101C20006BF900F0BFF9094A0021094801F080FC76
:101C30000849086001F034FB01F03AF901F0CAFCF0
:101C400001F09AF9BDE8104002F0D6B9F44F00084F
:101C5000FD090008000000202DE9F04385B00024B4
:101C60002E480094019402940394816941F010017C
:101C70008161816901F010010491816941F02001C5
:101C80008161816901F020010491816941F00801BD
:101C90008161816901F008010491816941F00401C9
:101CA00081618069DFF8788000F004004FF400550E
:101CB0000490002229464046FFF7E7F9DFF86490D8
:101CC0004FF4C056002231464846FFF7DEF9009532
:101CD000022701250397CDE9015469464046FFF7E5
:101CE000E7F8A80200901048CDE90105694648468A
:101CF000FFF7DEF803970096CDE9015469464846A0
:101D0000FFF7D6F8002205212820FFF74FFA2820F8
:101D1000FFF73EFA05B0BDE8F08300000010024076
:101D200000100140000C014000002110104810B5C7
:101D30000E4901604FF48271416000218160C160F1
:101D40004FF400720161C0E905120822C0E90721C1
:101D5000416281620A21C162FFF7E8FC002803D0DA
:101D6000BDE81040FEF790BE10BD000000380040F6
:101D7000C0070020FEE7704770B5044614F85C0FFA
:101D800001F0E6FA0546E18C0022E069FFF77DF9F3
:101D900014F80C3B302154F86829204601F04EFB22
:101DA00094F85C302A461021204601F007FB002001
:101DB00094F85C100BE0A36E2A5C1B5C9A4204D082
:101DC000284601F089FA012070BD401CC0B2814252
:101DD000F1D8284601F080FA002070BD70B50026C9
:101DE00004460D4680F897601C225830FEF7F6F93D
:101DF0002046FFF7C1FF08B1012070BDB4F8821082
:101E00000022A06FFFF741F9AA782121204601F0B6
:101E100038FB6A782221204601F033FBEA7925213C
:101E2000204601F02EFB6A7A287A26210243A87AFE
:101E30000243204601F025FBB4F882100122A06F76
:101E4000FFF723F9EA782321204601F01AFBE87E08
:101E5000022804D173225021204601F012FBEA7EB1
:101E6000687E3D210243204601F00BFBAA7E3C2107
:101E7000204601F006FB2878012801D020B106E0B9
:101E8000204600F009F902E0204600F04CF994F8F1
:101E90009720E121204601F0F4FA94F89720E221FE
:101EA000204601F0EEFAC4F89060C4F88C6084F823
:101EB0009460072084F89500202084F89700702211
:101EC0002721204601F0DDFA204600F002F800202C
:101ED00070BD70B504460246002101F093FA621C01
:101EE0000121204601F08EFAA21C0221204601F0B9
:101EF00089FAE21C0321204601F084FA221D042104
:101F0000204601F07FFA621D0521204601F07AFA91
:101F1000A21D0621204601F075FAE21D0721204688
:101F200001F070FA04F108020821204601F06AFA73
:101F300004F109020921204601F064FA002505F1A7
:101F40000A0004EBC502C1B294F85C30204610329E
:101F500001F034FA05F111006219C1B2204648328D
:101F600001F050FA6D1C062DE9DB94F85C3004F1A9
:101F700040021021204601F021FA04F14E021721FF
:101F8000204601F03FFA04F14F021C21204601F0E7
:101F900039FA04F150022046BDE870401D2101F0DD
:101FA00031BA000000B5264887B02449C0F888102F
:101FB00024498167CA14A0F8822040F8741F8A144B
:101FC00082818160091501821C216846FEF71FF994
:101FD00030208DF805000F208DF8060032208DF896
:101FE000070008208DF8080006208DF80900012060
:101FF0008DF800003F218DF801108DF802100321AB
:102000008DF8031005218DF804100F4903910B3949
:102010000491491D059107218DF8181002218DF8B2
:102020001B1004218DF819108DF80A008DF81A0084
:1020300069460348FFF7D2FE07B000BDC007002085
:10204000280F0020000C01404700002010B5044676
:1020500090F89700202801D0022010BD232084F89A
:102060009700C4F88C107AB194F8730002280BD151
:10207000D4F8902012B994F8940028B194F89430D0
:10208000A821204601F0DAF9B4F882100122A06FED
:10209000FEF7FBFF002010BD70B50546B0F88210BA
:1020A000806F0022FEF7F1FF012085F858000646F8
:1020B000002495F85900304226D0E86E022E025DC9
:1020C00004F11100C0B240F0200128460CD901F003
:1020D000D8F9686E04EB8401421804F10A00C0B21A
:1020E00040F0200101230CE001F0CBF9686E04EB15
:1020F0008401421804F10A0095F85C30C0B240F047
:102100002001284601F09AF97006060E641C062C80
:10211000CFDB95F85800202140F00E022846BDE89C
:10212000704001F0AEB910B50446B0F88210806F6F
:1021300000225834FEF7A9FF002004F8060B2421E2
:1021400014F8012914F85D090243204601F099F9B9
:1021500094F85C3030212046A26E01F06FF9E06EF9
:1021600031210278204601F08CF994F85C302A2164
:102170002046A26E01F062F994F85800202140F048
:102180000E022046BDE8104001F07BB938B5044688
:1021900090F8970023281ED1B4F882100022A06F77
:1021A000FEF773FF00208DF800006A4607212046E5
:1021B00001F028F99DF800202721204601F061F95F
:1021C0009DF800002025C0F3420184F895100529F0
:1021D00003D984F89750012038BD420615D58006F2
:1021E00002D5204600F014F894F89510E06ED4F86B
:1021F0008C20435C6121204601F0E0F894F89510B2
:10220000204600F004F884F89750002038BD70474D
:1022100002480169491C0161704700001800002054
:102220002DE9F0410446D4E90301FEF74DF8E061E1
:10223000A569064601212846FEF7BCF83146FEF79F
:1022400046F86169FDF7EEFFA168FEF743F807461F
:1022500031466068FEF73EF8804629463046FEF774
:1022600033F82168FEF736F84146FDF7DBFF3946C3
:10227000FDF7D8FF0746A08CFEF739FA3946FDF77F
:10228000D1FFFEF763FA81B2A184C4E90556206A42
:10229000814200DDA084A18C4042814200DAA0840A
:1022A000BDE8F0811CB502F0ADFC0849084C08609F
:1022B0000121064802F00EF8D4E90401CDE900013D
:1022C00094E80F0000F04AF9F2E700000C0000204B
:1022D000FC00002038B50B46009204460022802105
:1022E00000F01DF8002804D0606D40F0200060650B
:1022F000032038BD3EB500248DF80810FF21009161
:102300008DF80440D0F88800012301AA02A9FFF744
:1023100085FA08B18DF804409DF804003EBD2DE912
:10232000F0411D4617460E460446DDF8188008E0C9
:10233000681C06D0FEF7AEFEA0EB0800A8420BD248
:1023400055B12068806836EA000030D00020B842DD
:10235000EED10020BDE8F0812068416821F0E00165
:1023600041606068B0F5827F0BD1A068B0F5004F86
:1023700002D0B0F5806F04D12068016821F04001DF
:102380000160A06AB0F5005F09D12068016821F4FE
:10239000005101602068016841F400510160012092
:1023A00084F85100002084F850000320D2E7012077
:1023B000CDE7000000B58BB000200121CDE906017A
:1023C0000590009001900290039004900E20CDE9BA
:1023D000081069460C48FEF7CEFB00B1FEE70A483C
:1023E000FEF710FD00B1FEE702210748FEF74DFBA6
:1023F00000B1FEE710210448FEF747FB002800D09B
:10240000FEE70BB000BD000098070020012001F09E
:102410003BFFFBE710B5502080F31188BFF34F8FCF
:10242000BFF36F8F02F0F4FB18B104494FF08050F6
:102430000860002080F3118810BD000004ED00E06A
:1024400030B58FB028216846FDF7E1FE14210AA8B7
:10245000FDF7DDFE0120010400248DE81300049047
:102460004FF4E010CDE90810022507956846FEF705
:10247000D1FF00B1FEE70F20CDE90A054FF48060DF
:10248000CDE90C4002210AA80E94FEF7C1FE0028F7
:1024900000D0FEE70FB030BD0D48016841F00101EA
:1024A000016041680B4A1140416001680A4A1140CD
:1024B0000160016821F480210160416821F4FE017E
:1024C00041604FF41F0181600449C00308607047F8
:1024D000001002400000FFF8FFFFF6FE08ED00E0EC
:1024E0000148FFF7B8BA000018080020F0B50268EC
:1024F000164C174D174E4FF08047A04205D0B842FA
:1025000003D0A84201D0B04203D122F070034A6840
:102510001A43A04205D0B84203D0A84201D0B0422D
:1025200003D122F44073CA681A434B6922F0800237
:102530001A4302608A68C2620A688262A04201D1BC
:102540000969016301214161F0BD0000002C0140D7
:102550000004004000080040FEE700002DE9FC41B7
:10256000DDE90845CDE9004500F034F8174E184F75
:10257000002505EB051000EB451006EBC004E069F3
:10258000C4F8C40004F1B400FFF74AFEB4F8D80060
:10259000FEF7ADF8C4F898003946206AFDF79AFEB8
:1025A000C4F89C0004F18C00FFF73AFED4F85C01FB
:1025B000FEF7CCF86D1CA4F87401042DD9DB00F0F3
:1025C000E9FBBDE8FC4100F013BC0000FC0000206A
:1025D000000010422DE9FC5F07460A4620F0004348
:1025E0004FF07E5000210D9E834200DC0F4622F00A
:1025F0000043834200DC0A4626F00043B3F17E5FCD
:1026000000DC0E46DFF85C9217F0FF4FA9F11005D1
:10261000A5F1100BA5F26C6A02D112F0FF4F6DD03C
:1026200090463946104600F087FAFEF7A3F88E4A26
:102630008E4BFDF76CFFFEF7B0F8A9460646894DB4
:102640004046002410350146FDF744FE80463946D9
:102650000846FDF73FFE4146FDF7E4FD0190304698
:10266000FEF788F8804600917E4A59F824103046DB
:1026700042F8241049F82460FDF726FE7C490746FD
:10268000884207DD55F824004FF07E51FDF71CFE0F
:1026900045F82400774955F824008F4205D34FF0C0
:1026A0007E51FDF7BFFD45F824000121FDF782FEB4
:1026B000FEF760F86C4A704BFDF72FFF02460B46A1
:1026C00040460099FDF782FEFEF767F84BF82400BC
:1026D0006A49FDF7FFFD014604EB041000EB4412CC
:1026E0000AEBC207C7F8C010019801F06FFC641C28
:1026F000C7F85C01042CB7DBBDE8FC9F16F0FF4F68
:102700007ED0DFF86081002408F110085C4D55F898
:10271000240000F04BFC05F11007814657F8241007
:102720003046FDF7D7FD4946FDF7D4FD824655F802
:10273000240001F087FB054657F824103046FDF7CA
:10274000C9FD2946FDF7C6FD464D464F103D814661
:1027500055F8240047F824005146484600F0ECF9AB
:10276000FEF708F8404A414BFDF7D1FEFEF715F899
:1027700045F82400834657F82410FDF7A5FD3C4991
:102780000746884208DD454658F824004FF07E5140
:10279000FDF79AFD45F8240036498F4208D3454697
:1027A00058F824004FF07E51FDF73CFD45F8240019
:1027B00058F824000121FDF7FDFDFDF7DBFF2A4A53
:1027C0002D4BFDF7AAFE05460F465846FDF7D2FFF2
:1027D0002A463B46FDF7FAFDFDF7DFFF2149203988
:1027E00041F824002549FDF775FD04EB041101EBC8
:1027F0004412244901EBC2054946C5F8C00000E077
:1028000013E00846FDF766FD074651460846FDF70A
:1028100061FD3946FDF706FD01F0D8FB641CC5F8E3
:102820005C01042CFFF672AF66E70E4E00204C46AA
:1028300010365F46534646F8201045F8201000EB4E
:10284000001244F8201002EB401247F8201003EB6E
:10285000C202401CC2F8C010C2F85C110428EADBB6
:102860004AE70000780700204AD8124DFB21F93FC3
:10287000DA0FC93FDA0FC9BFFB210940C7718C408D
:10288000D44F0008FC0000204100080218BF0420BB
:102890000A0E18BF40F001004FF07F4232EA0101FA
:1028A00008BF40F00200012808BF05207047090753
:1028B000090E002804DB00F1E02080F800147047C6
:1028C00000F00F0000F1E02080F8141D7047012196
:1028D000FDF770BDFDF7A6BC00210846FDF72CBD35
:1028E0006FF05E010807FDF765BD00002DE9F04DB2
:1028F0000D4614464FF07F41B1EB440F9EBF4FF0A1
:10290000FF312960BDE8F08D4FF0004040EA04211E
:10291000C4F3C750783810F01F024A4B4FEA601CCE
:10292000C2F120067B44C4F3C750A0F178004FEAFF
:10293000601003EB800053F82C3008BFD0E901C6CB
:1029400012D0D0F804C093402CFA06F73B438768B6
:102950000CFA02FC27FA06F8C06807FA02F2F04007
:102960004CEA080C42EA0006A3FB0132ACFB01C0B2
:10297000A6FB016101EB0C068E4234BF4FF0010C47
:102980004FF0000CC1186144BCF1000F02D081422D
:1029900002D903E0814201D2012000E0002010446E
:1029A00000F120024FEA92188006CA0C40EA423039
:1029B0004F03C5F80080FDF791FE82463846FDF7CB
:1029C00096FE6FF01201FDF7F5FC07463046FDF765
:1029D0008EFE6FF02501FDF7EDFC8346394650462B
:1029E000FDF720FC5946FDF71DFC00F500666FF36E
:1029F0000B0651463046FDF767FC3946FDF764FC8F
:102A00005946FDF764FC1049FDF764FC07460F4981
:102A10003046FDF75FFC3946FDF704FC07460C49DC
:102A20003046FDF757FC3946FDF7FCFB14F0004F2C
:102A300008BFBDE8F08DC8F1805180F000402960EA
:102A4000BDE8F08D08270000DB0FC92F22AAFD2961
:102A50000000C92F02E008C8121F08C1002AFAD1DD
:102A600070477047002001E001C1121F002AFBD10E
:102A7000704700000149086070470000F80000201E
:102A800010B504460068084A20F00041914209DD73
:102A9000B0F5000F01DB0A2001E06FF00900FDF73F
:102AA0001DFE206010BD00000000204110B504464E
:102AB0000068084A20F00041914209DDB0F5000F9E
:102AC00001DB642001E06FF06300FDF707FE20608A
:102AD00010BD00000000C84210B504460068084A56
:102AE00020F00041914209DDB0F5000F02DB4FF408
:102AF000B47000E00348FDF7F1FD206010BD000058
:102B00000000B44398FEFFFF10B504460068084A71
:102B100020F00041914209DDB0F5000F02DB44F6E0
:102B2000206000E00348FDF7D9FD206010BD0000E3
:102B300000409C46E0B1FFFF2DE9F0474FF06842AE
:102B400002EB40030C460546B3F1654F3CBF02EB78
:102B50004102B2F1654F7CD2C0F3C753C1F3C752F3
:102B60009A1A1B2A06DD10F0004F14BF76487748EA
:102B7000BDE8F08712F11A0F17DA11F0004F06D0F6
:102B800010F0004F0CBF72487248BDE8F087214634
:102B90002846FDF7D1FB0446FFF776FE042808BF60
:102BA000FFF79EFE2046BDE8F0874200B2EB410FE2
:102BB00025D910F0004F19BF674F684E684F694E16
:102BC000224685F0004415460A4680F00041104632
:102BD0000A1A5200B2F1807F40D248406249DFF8C1
:102BE0008CA110F0004F18D04FF03F483846FDF749
:102BF0006BFB074651463046FDF766FB17E011F0C8
:102C0000004F04BF00263746E2D010F0004F19BF36
:102C1000574F584E584F594EDAE74FF07C583846C8
:102C2000FDF700FB074651463046FDF7FBFA064626
:102C300041462846FDF74EFB2146FDF7F3FA824652
:102C400021464046FDF746FB2946FDF740FB51462D
:102C500000E037E0FDF770FB044604E0214628461B
:102C6000FDF76AFB04460146FDF734FB8046444904
:102C7000FDF730FB4349FDF7D5FA4146FDF72AFB46
:102C80004149FDF7CFFA4146FDF724FB3F49FDF7E7
:102C9000C9FA4146FDF71EFB3D49FDF7C3FA05465B
:102CA00041462046FDF716FB2946FDF713FB31464A
:102CB000FDF7B8FA2146FDF7B5FA3946BDE8F04709
:102CC000FDF7B0BA4FF07F42B2EB400F28BFB2EB36
:102CD000410F03D2BDE8F047FFF7FCBD40EA010316
:102CE0005B0008BF44F0FF410AD0B2EB400F08BFC1
:102CF000B2EB410F06D125F0804024F0804105461B
:102D00000C4629E7B2EB400F12BF5FEA410245F0E3
:102D1000FF4004F000413FF41FAF4A0092EA400335
:102D20003FF51AAF002AACBF4FF09F464FF03E561A
:102D30003146FDF7CFFA054631462046FDF7CAFA7F
:102D400004462846214607E7DB0FC9BFDB0FC93F12
:102D5000DB0F4940DB0F49C00000C9BF22AAFDB903
:102D60000000C93F22AAFD390060ED3EC30ACE37FC
:102D7000000049C022AA7DBA0000494022AA7D3A3B
:102D80002DAD65BD8FB8D53D0FB511BE61C84C3EA8
:102D9000A8AAAABE10B588B00820049080010090AF
:102DA0000020104B029006AA039000EB001101EBEB
:102DB000401103EBC101B1F8B0100C0A02F8104049
:102DC00002EB4004401C61700428EEDB064B6946B0
:102DD0000648FDF76CFE002801D0FDF755FE08B04F
:102DE00010BD0000FC0000202C00002098070020EF
:102DF000064810B5B0F87401FDF779FC02460123CE
:102E0000BDE810400021024800F004B8FC0000209A
:102E1000380700203FB589B00446082006900020FE
:102E20000590042004906BB1FF2040EA01201D4D65
:102E300003900A0008D0012A0AD0032A28D00429C6
:102E40001AD12AE02079F0E70BA8FFF72FFE02E065
:102E50000BA8FFF715FE29460B98FDF73BFAFDF787
:102E60005CFC010E8DF80010010C8DF80110010AB8
:102E70008DF802108DF803000B4B6A4602A92068FA
:102E8000FDF715FE08B1FDF7FFFD0DB0002030BDC8
:102E90000BA8FFF739FE0B98E1E70BA8FFF71CFE24
:102EA0000249D9E700007A44380000200024744920
:102EB0001CB50A491820CDE900010023802208A191
:102EC0000A4801F0BFFD012800D0FEE70948084983
:102ED00040F8901F202101711CBD00001C00002043
:102EE00043616E526561645461736B00090A0008A6
:102EF000080F0020280F00202DE9F043184D174E31
:102F0000184FDFF864C0DFF86480194ADFF8649076
:102F1000002142F2107305F23C6401EB011000EB5A
:102F2000411005EBC000C0F88C20C0F89020C0F81C
:102F3000D430C0F8BC800663C0F8AC30C0F8942030
:102F4000C0E92D7C80F8DD1004EBC10044F831901D
:102F50000171491C0429E0DBBDE8F0830000104248
:102F6000FC00002000401C469A99C8420000C8425C
:102F700000007041980700201CB507491820CDE9D2
:102F800000010023802205A1074801F05BFD012814
:102F900000D0FEE71CBD000008000020436F6D6DEF
:102FA000616E645461736B00310A00082DE9F843C7
:102FB000044602464F486946B0EB420F09D94FF02C
:102FC000E640B0EB420F94BF00204FF0FF3000907E
:102FD00030E0494B22F00040834271D947492046F6
:102FE000FDF778F9FDF77CFC8046FDF796FB00F0D5
:102FF0000300009042494046FDF76CF905464149FF
:103000004046FDF767F906463F494046FDF762F93D
:1030100007463E494046FDF75DF92146FDF757F961
:103020003946FDF751F93146FDF74EF92946FDF7CE
:103030004BF904462546009C002C45DB294614F03C
:10304000010F08461CD0FDF745F906463049FDF74B
:1030500041F93049FDF73BF93146FDF73BF92E497F
:10306000FDF7E0F83146FDF735F92946FDF732F96D
:103070002946FDF7D7F814F0020F1CD0BDE8F883FD
:10308000FDF728F905462549FDF724F92449FDF700
:10309000C9F82946FDF71EF92249FDF7C3F829466C
:1030A000FDF718F94FF07E51FDF7BCF814F0020F50
:1030B00008BFBDE8F88380F00040BDE8F883FFE773
:1030C0001046FFF713FCB4E76800B0F17F4F3CBF38
:1030D0004FF07E50BDE8F88307D14FF00100FFF7B5
:1030E000C9FCBDE8F843FFF7F7BB2846BDE8F84345
:1030F000FFF7EDBBB61F927E490E494683F9223F8A
:103100001A61342C0020A23300A0FD390000C93F11
:10311000336D4C39DA82083CA0AA2ABEB93AB2BA59
:10312000CA9F2A3DDDFFFFBE2DE9F0470546808896
:10313000C0F30A01A1F20121042956D2304BC1EBA0
:10314000C10053F82020521C43F820204FD003EB3D
:1031500080046268A260288940BA00B2804660603C
:10316000801AB0F5805F02DDE268521EE26010F561
:10317000805F02DAE068401CE06001EB011000EBC8
:103180004111204800EBC1060D21D6F83090484689
:10319000FDF710F9FDF7EEFA8A46E168074608EBFD
:1031A00041302169401A4000FDF7A6FA164A174B34
:1031B000FDF7B3F93A465346FDF721FAFDF7EDFA6C
:1031C000F061688940BA00B2FDF788FA6061FDF7E6
:1031D000A4FAFDF783FA4946FDF7AEF83062A889F4
:1031E00040BA00B2FDF77AFA7062BDE8F08729892B
:1031F00003EB800049BA09B201614160F5E70000C4
:1032000058080020FC0000204AD8124DFB2109403C
:103210007FB50D4D00260D4C11E005EB0110491C4A
:10322000E1600FC88DE80F009DF80000C00702D1D3
:103230006846FFF779FFE068642800D1E660D4E9CA
:1032400002018142E9D17FBDC8080020180000209A
:1032500070B50021104C0846225C401C1144C9B2D4
:103260000628F9DBA079884204D00B4900201839E0
:10327000487070BD94F90100FDF730FA074D2860E1
:1032800094F90200FDF72AFA686094F90400FDF74A
:1032900025FA686170BD000030000020FC000020AD
:1032A0001CB507493020CDE900010023802205A18B
:1032B000084801F0C7FB012800D0FEE71CBD000054
:1032C00004000020456D657267656E637954617313
:1032D0006B000000610A000810B5002821D0114BD6
:1032E0000022001F196803E0814203D80A4649689A
:1032F0000029F9D152B11368841A9C4204D10068A4
:1033000018441060104602E0506000E0186039B1C7
:1033100002680B1A934203D10B681A440260496891
:10332000416010BDF0000020FDF7C2FEFFF788F8F5
:10333000FEF792FCFEF750FCFEF7F8FCFFF73AF8B8
:1033400000F0BAF8FEF76AFC00F0D2F8FEE70000E1
:10335000F0B50B30154D20F007010024144A0FE0A2
:1033600003688B420BD38B4205D95E1A431847681A
:10337000C3E9006700E04368136002C004E0021D77
:1033800010680028ECD12046002802D1286808B136
:103390000020F0BD064A07481060074A121A22F0C2
:1033A0000702C0E9002401202860D7E7F4000020CC
:1033B000F00000209C440020984600202DE9F041B8
:1033C0000C4617460546B0F880101E46406F002296
:1033D000FDF75BFE21462846FEF78CFF8046002461
:1033E00005E0FF212846FEF785FF3855641CB442EE
:1033F000F7DBB5F880100122686FFDF746FE404606
:10340000BDE8F08170B50E4615460446B0F8801050
:10341000406F0022FDF739FE31462046FEF76AFF75
:103420000646FF212046FEF765FF2870B4F880109D
:103430000122606FFDF729FE304670BD2DE9F04195
:103440000C4617460546B0F880101E46406F002215
:10345000FDF71BFE21462846FEF74CFF8046002460
:1034600004E0395D2846FEF745FF641CB442F8DBF2
:10347000B5F880100122686FFDF707FE4046BDE8F1
:10348000F08170B50D4616460446B0F88010406FC6
:103490000022FDF7FAFD29462046FEF72BFF0546E0
:1034A00031462046FEF726FFB4F880100122606FF7
:1034B000FDF7EBFD284670BDEFF3058058B9EFF33B
:1034C000108040B909490868022801D030B109E0EC
:1034D000EFF3118030B16FF00500704701200860F4
:1034E000002070474FF0FF3070470000C8000020F8
:1034F00010B5EFF3058060B9EFF3108048B90B49C0
:103500000868022802D0012806D00BE0EFF31180F2
:1035100040B16FF0050010BD0220086000F064FFAC
:10352000002010BD4FF0FF3010BD0000C80000208B
:10353000F0B585B00B464FF00005EFF3058103951C
:10354000A1BBEFF3108189BB21490968022902D18F
:10355000EFF3118151BB48B3802618218DF810502C
:1035600004AC42B3176807B13C46976907B13946C6
:103570004F1E382F02D21779FF0702D0002005B066
:10358000F0BD576907B1BE08D2F808C0BCF1000F02
:103590000DD0D5685C2D18D312693AB137B18DE8DA
:1035A00006103246214601F07AFA03900DE0D76802
:1035B0005FB912694AB903AACDE90012B2B2214635
:1035C00001F040FA012800D003950398D7E70000E6
:1035D000C80000201CB507491820CDE900010023D0
:1035E000802205A1074801F02DFA012800D0FEE74E
:1035F0001CBD000010000020506572696F645461AA
:10360000736B0000A52200082DE9F041134E0F4610
:10361000044675693068001D00F008FD601C07D184
:1036200037B13168BDE8F0410D48091D00F04EBDCD
:1036300030682C44AC424460316805D2B068BDE8C3
:10364000F041091D00F02ABD7068091D00F026FD3B
:10365000306B844200D23463BDE8F08178000020F2
:10366000B01400202DE9F041054600F03BFD2D4E41
:103670003069401C306130682B4F10B1F06930B3B5
:103680002BE035603069012827D1002404EB840049
:1036900007EB800000F0F4FC641C382CF6D32348C0
:1036A00000F0EEFC2148143000F0EAFC1F482830FE
:1036B00000F0E6FC1D483C3000F0E2FC1B485030B6
:1036C00000F0DEFC194870601430B06005E030682E
:1036D000E96AC06A884200D83560F06A401CF0622E
:1036E0006864E86AB169884200D9B06100EB800083
:1036F00007EB8000291D00F0E9FC00F013FDF069E4
:1037000000280CD03068E96AC06A884207D20849AC
:103710004FF080500860BFF34F8FBFF36F8FBDE84D
:10372000F0810000780000200010002060140020CC
:1037300004ED00E038B500F0D5FC104CA068C8B925
:103740000F4800F09DFC0E48143000F099FC0C4826
:103750002060143060600A4B00202833009003F191
:10376000500210210A2000F00FFFA06010B105A147
:1037700000F056FDBDE8384000F0D4BCB400002095
:10378000C4140020546D72510000000030B4026C6B
:103790000B46002A0BD0C1681144C1604468A142A5
:1037A00001D30168C16030BC1846FCF717BD30BCBE
:1037B00070472DE9F041856B174604460026026CE0
:1037C00082B1C7B1E068FCF709FDE168206C091A15
:1037D000E1602268914202D26168081AE060022F1B
:1037E00016D017E02068A8B9606801F0BBFA064659
:1037F000002060600EE0A068FCF7F0FC216CA0687F
:103800000844A0606168884204D32068A06001E099
:1038100005B16D1E6D1CA5633046BDE8F08110B585
:10382000044690F8590058B101280CD002280FD056
:10383000502080F31188BFF34F8FBFF36F8FFEE7E7
:10384000206B00F083FC2046BDE8104000F07EBCF9
:1038500010BD000010484FF42051420706D0C01D93
:103860000D4920F00700411AC1F520510B4A0023F1
:103870000144C2E900030839103A21F00701116040
:103880004B600B600B1AC0E9001393604FF00040CF
:103890005360D06070470000941C0020DC000020C2
:1038A000134E144DA6F29C474FF08058DFF8489015
:1038B00011E000F017FCF068C468201D00F0B6FBB2
:1038C0002869401E2861E868401EE86000F02AFC74
:1038D0002046FFF7A4FFE8680028EAD138680128ED
:1038E000F9D9C9F80080BFF34F8FBFF36F8FF2E7AC
:1038F0009C1400207800002004ED00E070B51D4607
:10390000049C49B12260C4E90F010121204600F066
:103910006FFE84F84C5070BD2460F4E72DE9F04749
:103920000E46DDE909841746824691009946089DB6
:10393000A522206BFCF764FC6FF00301206B01EB08
:103940008701084420F00707780707D0502080F34C
:103950001188BFF34F8FBFF36F8FFEE72218315CE2
:1039600082F83410315C11B1401C1028F6D30026C7
:1039700084F84360382D00D33725E562C4E9135637
:10398000201D00F088FB04F1180000F084FB246186
:10399000C5F138006462A061666584F858604A46E3
:1039A0005146384600F03CFA2060B8F1000F01D0D3
:1039B000C8F80040BDE8F08730B5114900E0114675
:1039C0000A688242FBD34B685C18844203D140688A
:1039D00018444860084643681C18944209D1084CB2
:1039E000103C2468A24209D052681A4442600A6816
:1039F00012680260814200D0086030BD0460F9E7BF
:103A0000DC00002070B5002441600B4D0061914244
:103A100006D8D11A8269914206D2011D686807E072
:103A20009A4203D2994201D3012403E0011D286880
:103A300000F034FB204670BDB400002010B50446F1
:103A400000F050FBA06B20B1002400F06BFB20467F
:103A500010BD0124F9E7000030B587B0304D55E0C6
:103A60000198002806DADDE90301029A90470198DF
:103A700000284BDB039C606910B1201D00F0D6FAD2
:103A800005A800F0B9F8024601980A283ED2DFE8FE
:103A900000F00505053D263705053D260298A1697C
:103AA000034601442046FFF7ADFF00B3616A20469C
:103AB0008847E069012829D1002000900298A16977
:103AC000002342181946204601F052FA78B95020D6
:103AD00080F31188BFF34F8FBFF36F8FFEE702981B
:103AE000A06128B1811813462046FFF78BFF0DE037
:103AF000502080F31188BFF34F8FBFF36F8FFEE725
:103B000094F82C0010B9204600F020FB002201A9F7
:103B1000A86800F0C1FE0028A2D107B030BD0000A7
:103B2000B40000202DE9FC410E46054600F09EFC45
:103B300001A800F061F80446019818B101F088F975
:103B4000BDE8FC81224FAEB178680068A8B30026BA
:103B5000291B3246B86800F075FB01F079F900289E
:103B6000EED11C494FF080500860BFF34F8FBFF378
:103B70006F8FE5E7A542EBD801F06AF93868264671
:103B8000C068C468201D00F051FAE069012810D116
:103B9000A0692B46411932462046FFF733FF40B15A
:103BA00000200346014600902A46204601F0E0F935
:103BB00020B1616A20468847C2E707E0502080F3C1
:103BC0001188BFF34F8FBFF36F8FFEE70126BFE76A
:103BD000B400002004ED00E006484168096829B1FE
:103BE0004168C968C9684968016370474FF0FF318F
:103BF000FAE700007800002070B5054601F002F8F1
:103C0000064E04463069844203D200F009F80120D0
:103C100000E0002028602046346170BDB400002020
:103C2000F8B5194E1FE0C068C4680568201D00F093
:103C3000FDF9616A20468847E069012813D1A0692F
:103C40002844A84206D924616060211D306800F034
:103C500025FA08E000200346014600902A46204647
:103C600001F086F938B1306801680029DBD171684C
:103C7000C6E90010F8BD502080F31188BFF34F8FC4
:103C8000BFF36F8FFEE70000B400002008484068D3
:103C9000401C4FF0500080F3118804D0BFF34F8FC9
:103CA000BFF36F8FFEE7BFF34F8FBFF36F8FFEE75A
:103CB000E4000020084C2068016839B1002139B1C6
:103CC0000020FFF72FFFFFF7C7FEF4E70121F6E71B
:103CD000C0680068F5E70000B40000202DE9F0415D
:103CE000044600F0FFF994F9455004F1240609E078
:103CF000606A48B1304601F073F808B100F03AFB51
:103D00006D1E6DB2002DF3DC4FF0FF3684F8456078
:103D100000F008FA00F0E6F994F9445004F11007B5
:103D200009E0206948B1384601F05AF808B100F0BE
:103D300021FB6D1E6DB2002DF3DC84F84460BDE8FC
:103D4000F04100F0EFB900002DE9F04105460026F2
:103D500000F08CFB314F386808B9FFF77BFDF8683D
:103D600005424BD1C5B3083568070ED005F00700F2
:103D7000C0F108000544680707D0502080F311887F
:103D8000BFF34F8FBFF36F8FFEE72DB37868854287
:103D900034D8224910310846046801E0214604461F
:103DA0006068A84202D220680028F7D138688442AF
:103DB00024D00E682068086060680836411B10290E
:103DC0000FD96019420708D0502080F31188BFF343
:103DD0004F8FBFF36F8FFEE710E041606560FFF724
:103DE000EBFD61687868401A7860BA68904200D24A
:103DF000B860F86801430020C4E9000101F028F828
:103E0000700707D0502080F31188BFF34F8FBFF3A6
:103E10006F8FFEE73046BDE8F0810000CC00002047
:103E200010B5031F4FF080741C601B1F21F00101AF
:103E30001960191F024B0B60143940380A6010BD1D
:103E40008D3C00082DE9F843044602465248694675
:103E5000B0EB420F09D94FF0E640B0EB420F94BFF0
:103E600000204FF0FF30009030E04C4B22F000403B
:103E7000834271D94A492046FCF72CFAFCF730FD01
:103E80008046FCF74AFC00F003000090454940469C
:103E9000FCF720FA054644494046FCF71BFA064663
:103EA00042494046FCF716FA074641494046FCF7AE
:103EB00011FA2146FCF70BFA3946FCF705FA3146B0
:103EC000FCF702FA2946FCF7FFF904462546009C58
:103ED000002C45DB294614F0010F08461ED0FCF7E4
:103EE000F9F905463349FCF7F5F93349FCF79AF936
:103EF0002946FCF7EFF93149FCF794F92946FCF71C
:103F0000E9F94FF07E51FCF78DF914F0020F08BF6C
:103F1000BDE8F88380F00040BDE8F883FCF7DAF9EB
:103F200006462749FCF7D6F92649FCF7D0F9314671
:103F3000FCF7D0F92449FCF775F93146FCF7CAF9CA
:103F40002946FCF7C7F92946FCF76CF914F0020F73
:103F5000E0D1BDE8F883FFE71046FEF7C7FCB4E701
:103F60006800B0F17F4F09D22846FEF78DFC042887
:103F700008BFFEF7B5FC2846BDE8F88306D101204E
:103F8000FEF778FDBDE8F843FEF7A6BC2846BDE87D
:103F9000F843FEF79CBC0000B61F927E490E4946CE
:103FA00083F9223F1A61342C0020A23300A0FD398E
:103FB0000000C93FB93AB2BACA9F2A3DDDFFFFBE31
:103FC000336D4C39DA82083CA0AA2ABE70B505468A
:103FD000FCF757FC044620F00040C0F1FF40C00F42
:103FE00008D025F00040C0F1FF40C00F04BF012001
:103FF000FEF740FD204670BD1CB507490820CDE9FD
:1040000000010023802205A1074800F01BFD0128C4
:1040100000D0FEE71CBD0000140000205375707036
:104020006F72745461736B000D240008D0E9013283
:1040300001699A60D0E901235A604A68824201D13D
:1040400082684A60002202610868401E08600868B1
:1040500070470000034B036003F15C0008608020A0
:1040600010607047DC150020044B036003F15C0016
:1040700008604FF48070106070470000381800200E
:1040800000F108014FF0FF32C0E90112C160016187
:1040900000210160704700210161704730B50C6854
:1040A000621C02D000F1080202E0026904E01A4634
:1040B00053681D68A542FAD953684B6099608A60BD
:1040C000516008610168491C016030BD42684A6066
:1040D00093688B6093685960916008610168491C1E
:1040E00001607047502080F31188BFF34F8FBFF3FA
:1040F0006F8F0A494868401C486001280CD1084865
:10410000006810F0FF0F07D0502080F31188BFF334
:104110004F8FBFF36F8FFEE770470000E400002071
:1041200004ED00E00849486828B1401E486001D10C
:1041300080F311887047502080F31188BFF34F8FB0
:10414000BFF36F8FFEE70000E400002070B5002889
:1041500027D0144DA0F108046068E968084207D12F
:10416000502080F31188BFF34F8FBFF36F8FFEE7AE
:1041700022683AB1502080F31188BFF34F8FBFF30C
:104180006F8FFEE78843606000F070F960686968CF
:10419000084468602046FFF70FFCBDE8704000F05F
:1041A00057BE70BDCC0000204FF0E020002101611F
:1041B000816105494FF47A720968B1FBF2F1491E39
:1041C00041610721016170477400002010B5FBF7C1
:1041D000DFFF114910280ED300F1E02090F8F00322
:1041E0000A78904207D2502080F31188BFF34F8F96
:1041F000BFF36F8FFEE709480068896800F4E0604C
:10420000884207D9502080F31188BFF34F8FBFF346
:104210006F8FFEE710BD0000E40000200CED00E011
:1042200010B5074B002253F832401CB1521C082A2B
:10423000F9D310BD43F8321003EBC201486010BD42
:10424000C00F002070B515460E460446FFF74AFF22
:1042500094F944100020491C01D184F8440094F9D9
:104260004510491C01D184F84500FFF75BFFA06BA6
:1042700028B92A46314604F1240000F099F8204676
:10428000BDE87040FFF72ABD10B5020014D00F48FA
:10429000806B38B1502080F31188BFF34F8FBFF38C
:1042A0006F8FFEE700F0E2F800211046FFF7ACF94F
:1042B00000F0CEFD002807D105494FF0805008607E
:1042C000BFF34F8FBFF36F8F10BD00007800002049
:1042D00004ED00E070B50E4605004FF000030BD072
:1042E00096B11E4A906BB8B1502080F31188BFF38D
:1042F0004F8FBFF36F8FFEE7502080F31188BFF31D
:104300004F8FBFF36F8FFEE7502080F31188BFF30C
:104310004F8FBFF36F8FFEE700F0A8F852692C684B
:10432000A119944202D98C4202D804E08C4201D8EF
:10433000914200D9012329601BB1881A0021FFF79F
:1043400063F900F085FD002807D105494FF0805042
:104350000860BFF34F8FBFF36F8F70BD78000020F0
:1043600004ED00E002498A6A0260496941607047D1
:104370007800002001490120486270477800002041
:1043800010B50C4650B1094909681831FFF786FE8F
:104390002046BDE810400121FFF736B9502080F3D8
:1043A0001188BFF34F8FBFF36F8FFEE778000020B7
:1043B00070B514460D4668B10A4909681831FFF70F
:1043C00085FE0CB14FF0FF3521462846BDE8704010
:1043D000FFF71AB9502080F31188BFF34F8FBFF356
:1043E0006F8FFEE77800002030B587B00025039579
:1043F00005AA04A903A80495FFF72CFEDDE9030133
:104400000095CDE90110002314A11648059A00F08B
:1044100046FB154C606318B100F07AFD012809D005
:10442000401C19D1502080F31188BFF34F8FBFF388
:104430006F8FFEE7502080F31188BFF34F8FBFF3DB
:104440006F8F4FF0FF3020630120E061656107B09E
:10445000BDE8304000F044B807B030BD49444C4599
:1044600000000000A1380008780000200248816B9D
:10447000491C81637047000078000020164B10B57E
:10448000986B10B10120586210BD002058629869E5
:10449000124901E0B8B1401E00EB800251F8222021
:1044A000002AF7D000EB800201EB820101F1080441
:1044B0004A6852684A60A24201D152684A60D16893
:1044C0001960986110BD502080F31188BFF34F8FA1
:1044D000BFF36F8FFEE7000078000020001000207F
:1044E0001CB5264908780190FF20087008788DF8DF
:1044F00000009DF800009DF8002000F0F0009042C0
:1045000007D0502080F31188BFF34F8FBFF36F8F18
:10451000FEE79DF800001A4B00F0500018700720CD
:10452000986006E0401E98609DF8000040008DF8FD
:1045300000009DF8000000069868F3D4032807D017
:10454000502080F31188BFF34F8FBFF36F8FFEE7CA
:104550004FF440709860019808700A48016841F46F
:1045600070010160016841F070410160FFF71CFEBD
:1045700000205860FBF7D6FD00201CBD00E400E0E1
:10458000E400002020ED00E038B5049D18B153B1DF
:10459000CAB181B120E0502080F31188BFF34F8F62
:1045A000BFF36F8FFEE7502080F31188BFF34F8F6A
:1045B000BFF36F8FFEE7502080F31188BFF34F8F5A
:1045C000BFF36F8FFEE739B1502080F31188BFF33E
:1045D0004F8FBFF36F8FFEE750241C46012384F8F2
:1045E00046302B460094FFF789F9204638BD00007D
:1045F00070B50D46040025D0FFF774FDD4E90F20F7
:10460000216802FB001161600021A1632168A160A3
:104610000A46D4E90F01401E00FB0121E16021465A
:104620004FF0FF3001F8440F487004F110008DB1D5
:10463000FFF726FD04F12400FFF722FDFFF772FDCE
:10464000012070BD502080F31188BFF34F8FBFF35E
:104650006F8FFEE721690029F0D000F0C1FB002830
:10466000ECD004494FF080500860BFF34F8FBFF388
:104670006F8FE3E704ED00E02DE9FF4F83B01F46A5
:104680008B4604004FF0000603D0BBF1000F08D0AA
:1046900011E0502080F31188BFF34F8FBFF36F8F6D
:1046A000FEE7206C38B1502080F31188BFF34F8FA4
:1046B000BFF36F8FFEE7022F0AD1E06B012807D00E
:1046C000502080F31188BFF34F8FBFF36F8FFEE749
:1046D00000F08AFADFF800914FF0000A4FF080589E
:1046E00048B9059838B1502080F31188BFF34F8F37
:1046F000BFF36F8FFEE7FFF7F5FCA06BE16B88421D
:1047000005D3022F03D00598C8B1DEB11EE03A46AA
:1047100059462046FFF74DF8616A19B104F12400AB
:1047200000F05EFB28B1C9F80080BFF34F8FBFF3E4
:104730006F8FFFF7F7FC012007B0BDE8F08FFFF7A0
:10474000F1FC21E06846FFF70DFE0126FFF7EAFCC9
:10475000FFF78CFEFFF7C6FC94F94400401C01D122
:1047600084F844A094F94500401C01D184F845A088
:10477000FFF7D8FC05A9684600F02AF930B12046B9
:10478000FFF7ACFA00F064FB0020D5E7FFF7AAFCC6
:10479000A06BE16B884201D1012500E00025FFF705
:1047A000C1FC95B104F110000599FFF7E9FD204621
:1047B000FFF794FA00F04CFB00289CD1C9F8008068
:1047C000BFF34F8FBFF36F8F95E72046FFF786FA51
:1047D00000F03EFB8FE7000004ED00E02DE9F0471C
:1047E0001F4690468946040003D0B9F1000F08D057
:1047F00011E0502080F31188BFF34F8FBFF36F8F0C
:10480000FEE7206C38B1502080F31188BFF34F8F42
:10481000BFF36F8FFEE7022F0AD1E06B012807D0AC
:10482000502080F31188BFF34F8FBFF36F8FFEE7E7
:10483000FFF7CCFC5020EFF3118680F31188BFF313
:104840004F8FBFF36F8FA06BE16B884206D3022FAF
:1048500004D0002086F31188BDE8F08794F9455014
:104860003A4649462046FEF7A4FF681C04D06D1C5A
:1048700084F845500120EDE7606A0028FAD004F181
:10488000240000F0ADFA0028F4D0B8F1000FF1D008
:104890000121C8F80010EDE72DE9F74783B08A46FB
:1048A00004004FF0000603D0BAF1000F08D011E069
:1048B000502080F31188BFF34F8FBFF36F8FFEE757
:1048C000206C38B1502080F31188BFF34F8FBFF3B5
:1048D0006F8FFEE700F088F9DFF8F09000274FF0C7
:1048E000805848B9059838B1502080F31188BFF33B
:1048F0004F8FBFF36F8FFEE7FFF7F4FBA56BC5B1DA
:1049000051462046FEF742FF6D1EA563206950B157
:1049100004F1100000F064FA28B1C9F80080BFF378
:104920004F8FBFF36F8FFFF7FDFB012006B0BDE88F
:10493000F087059808B11EB106E0FFF7F3FB27E00A
:104940006846FFF70FFD0126FFF7ECFBFFF78EFD32
:10495000FFF7C8FB94F94400401C01D184F844706F
:1049600094F94500401C01D184F84570FFF7DAFB4B
:1049700005A9684600F02CF8002820460AD0FFF769
:10498000ADF900F065FA2046FFF758F80028B3D0DB
:104990000020CBE7FFF752F890B104F1240005990D
:1049A000FFF7EEFC2046FFF799F900F051FA0028D6
:1049B000A2D1C9F80080BFF34F8FBFF36F8F9BE781
:1049C0002046FFF78BF900F043FA95E704ED00E08D
:1049D0002DE9F0410C46050011D0C4B1FFF782FB70
:1049E000174E71696B682268C81A571C17D02F6858
:1049F000B66AB74219D08B4217D8012410E0502074
:104A000080F31188BFF34F8FBFF36F8FFEE7502005
:104A100080F31188BFF34F8FBFF36F8FFEE7002441
:104A2000FFF780FB2046BDE8F081824205D9101ACD
:104A300020602846FFF796FCF1E700202060DCE7C5
:104A4000780000202DE9FF5F8346DDE90E87994657
:104A500016468A469000FFF777F905001CD05C20C7
:104A6000FFF772F9040014D00020256384F8590080
:104A7000CDE90240CDE900874B46324651465846C3
:104A8000FEF74CFF2046FEF7EDFD012004B0BDE827
:104A9000F09F2846FFF75AFB4FF0FF30F6E7F0B5DE
:104AA00085B00546DDE90B040A9EA8B1E4B15C2798
:104AB00000972063022084F859000020CDE90240CD
:104AC00004AF2846CDE90067FEF728FF2046FEF731
:104AD000C9FD049805B0F0BD502080F31188BFF3E4
:104AE0004F8FBFF36F8FFEE7502080F31188BFF325
:104AF0004F8FBFF36F8FFEE72DE9F0471F46DDF8BC
:104B0000209092460D4604004FF001081AD0FFF79E
:104B10005DFB5020EFF3118680F31188BFF34F8FB8
:104B2000BFF36F8F0FB1606D386094F858000221A9
:104B300084F85810BAF1050F16D2DFE80AF0150B09
:104B40000E141200502080F31188BFF34F8FBFF373
:104B50006F8FFEE7616D294301E0616D491C61655E
:104B600002E0022803D06565012803D030E04FF051
:104B700000082DE0A06A38B1502080F31188BFF3FF
:104B80004F8FBFF36F8FFEE7144DA86B18B104F180
:104B9000180113480DE0201DFFF748FAE06AA969E3
:104BA000884200D9A86100EB80010E4800EB81002B
:104BB000211DFFF78BFAE06A2968C96A884207D984
:104BC0000120B9F1000F02D0C9F8000000E06862CE
:104BD00086F311884046BDE8F08700007800002089
:104BE00088140020001000200548C16919B1806BAD
:104BF00018B1002070470120704702207047000064
:104C000078000020014840697047000078000020CB
:104C10002DE9F0412E4F0026B86B40B1386A401C98
:104C20003862786A00B101263046BDE8F0817D69BE
:104C30006D1C7D6113D17868006838B1502080F315
:104C40001188BFF34F8FBFF36F8FFEE77868B968A5
:104C50007960B860B86A401CB862FEF7BDFF386B77
:104C6000DFF87080854209D37868006880B1786881
:104C7000C068C468606885420DD238633868C06A0D
:104C800000EB800158F821000128CAD90126C8E7A5
:104C90004FF0FF30F1E7201DFFF7C8F9A06A18B107
:104CA00004F11800FFF7C2F9E06AB969884200D937
:104CB000B86100EB800108EB8100211DFFF706FAC7
:104CC000E06A3968C96A8842CED30126CCE7000081
:104CD00078000020001000202DE9F0411E46154606
:104CE00088460746FFF7FEF91C4C206890F85800EC
:104CF000022814D02068416DB94341652168012024
:104D000081F858005EB101213046FEF77DFC144960
:104D10004FF080500860BFF34F8FBFF36F8FFFF7E6
:104D200001FAFFF7DFF915B12068406D28602068AF
:104D300090F85800022801D0002505E02068416D58
:104D400021EA0801416501252168002081F8580009
:104D5000FFF7E8F92846BDE8F08100007800002060
:104D600004ED00E070B504004FF000002BD01A4DA8
:104D700029688C4207D0502080F31188BFF34F8FF1
:104D8000BFF36F8FFEE7216DF1B1491E2165E36C22
:104D9000E26A9A4217D0002915D1201DFFF746F983
:104DA000E06CE062C0F13800A061E06AA969884265
:104DB00000D9A861094900EB800001EB8000211DAA
:104DC000FFF784F9012070BD502080F31188BFF3F4
:104DD0004F8FBFF36F8FFEE7780000200010002098
:104DE00070B5C068C46854B104F118000646FFF7F6
:104DF0001DF9144DA86B50B13146134815E05020F1
:104E000080F31188BFF34F8FBFF36F8FFEE7201D34
:104E1000FFF70CF9E06AA969884200D9A8610B493B
:104E200000EB800001EB8000211DFFF74FF9E06AE5
:104E30002968C96A884202D90120686270BD0020D1
:104E400070BD0000780000208814002000100020B1
:104E50002DE9F0472B4D00242746A86B38B1FFF70A
:104E600041F9A86B401EA863A86B40B145E05020F3
:104E700080F31188BFF34F8FBFF36F8FFEE7286970
:104E800021490126C8B3A1F591698846D8F80010D8
:104E9000E1B1D8F80C00C46804F11800FFF7C6F8B7
:104EA000201DFFF7C3F8E06AA969884200D9A8610C
:104EB00000EB800109EB8100211DFFF707F9E06A93
:104EC0002968C96A8842E1D36E62DFE70CB1FEF758
:104ED00083FE2C6A3CB1FFF79BFE00B16E62641E3C
:104EE000F9D100202862686A38B1084901273807DB
:104EF0000860BFF34F8FBFF36F8FFFF713F938468A
:104F0000BDE8F087780000208814002004ED00E060
:104F100010B586B0FEF70EFC114CA068B8B10020A9
:104F20000390049005AA04A903A8FFF79DF8DDE902
:104F3000032102208DE8070000230AA10B48059AEF
:104F4000FFF7ADFDE06010B106B0012010BD5020AC
:104F500080F31188BFF34F8FBFF36F8FFEE7000020
:104F6000B4000020546D722053766300B53C0008F5
:104F70002DE9FF411F4603000A9E4FF0000015D0A7
:104F8000134DAC68002C0ED08DE80E00062917DA00
:104F9000FFF72AFE02284FF000030FD000226946D7
:104FA000A868FFF769FB04B0BDE8F081502080F3EA
:104FB0001188BFF34F8FBFF36F8FFEE73246EEE7E6
:104FC00000233A4669462046FFF708FCEBE700005D
:104FD000B4000020E4CB1640D631E240DFEDAF4014
:104FE000D1537B400080BB430080BB430080BB4368
:104FF0000080BB435050000800000000000000008B
:105000000000000000000000800000000800000018
:105010000000000000000000000000000000000090
:10502000010203040607080900000000010203044E
:10503000000000006E83F9A22915444ED15727FCC9
:10504000C0DD34F5999562DB4190433CAB6351FE82
:105050006E4170705461736B000000007C5000085A
:1050600000000020FC000000542A000878510008CD
:10507000FC0000209C490000642A00080000000099
:105080000000000000000000000000000000000020
:10509000000000000100000000000000000000000F
:1050A0000000000000000000000000000000000000
:1050B0000000000000000000123456789A0707072D
:1050C000070707123456789A1AC2C2C2C21B0000E0
:1050D00000001C000000001D000000001E00000079
:1050E00000000000010000001000000000000000AF
:1050F0000024F40000000000000000000000000098
:10510000000000000000000000000000000000009F
:10511000000000000000000000000000000000008F
:10512000000000000000000000000000000000007F
:10513000000000000000000000000000000000006F
:10514000000000000000000000000000000000005F
:10515000000000000000000000000000000000004F
:1051600000000000AAAAAAAA000000000000000097
:08517000000000000000000037
:04000005080000ED02
:00000001FF
